{
  "contractName": "StakingRewardPool",
  "abi": [
    {
      "inputs": [
        {
          "internalType": "address",
          "name": "_rewardTokenAddress",
          "type": "address"
        },
        {
          "internalType": "address",
          "name": "_lpTokenAddress",
          "type": "address"
        }
      ],
      "stateMutability": "nonpayable",
      "type": "constructor"
    },
    {
      "anonymous": false,
      "inputs": [
        {
          "indexed": true,
          "internalType": "address",
          "name": "user",
          "type": "address"
        },
        {
          "indexed": false,
          "internalType": "uint256",
          "name": "amount",
          "type": "uint256"
        }
      ],
      "name": "Deposited",
      "type": "event"
    },
    {
      "anonymous": false,
      "inputs": [
        {
          "indexed": true,
          "internalType": "address",
          "name": "user",
          "type": "address"
        },
        {
          "indexed": false,
          "internalType": "uint256",
          "name": "reward",
          "type": "uint256"
        }
      ],
      "name": "RewardPaid",
      "type": "event"
    },
    {
      "anonymous": false,
      "inputs": [
        {
          "indexed": true,
          "internalType": "address",
          "name": "user",
          "type": "address"
        },
        {
          "indexed": false,
          "internalType": "uint256",
          "name": "amount",
          "type": "uint256"
        }
      ],
      "name": "Staked",
      "type": "event"
    },
    {
      "anonymous": false,
      "inputs": [
        {
          "indexed": true,
          "internalType": "address",
          "name": "user",
          "type": "address"
        },
        {
          "indexed": false,
          "internalType": "uint256",
          "name": "amount",
          "type": "uint256"
        }
      ],
      "name": "UnStaked",
      "type": "event"
    },
    {
      "anonymous": false,
      "inputs": [
        {
          "indexed": true,
          "internalType": "address",
          "name": "user",
          "type": "address"
        },
        {
          "indexed": false,
          "internalType": "uint256",
          "name": "amount",
          "type": "uint256"
        }
      ],
      "name": "Withdrawn",
      "type": "event"
    },
    {
      "inputs": [
        {
          "internalType": "address",
          "name": "",
          "type": "address"
        }
      ],
      "name": "balances",
      "outputs": [
        {
          "internalType": "uint256",
          "name": "",
          "type": "uint256"
        }
      ],
      "stateMutability": "view",
      "type": "function",
      "constant": true
    },
    {
      "inputs": [
        {
          "internalType": "uint256",
          "name": "amount",
          "type": "uint256"
        }
      ],
      "name": "deposit",
      "outputs": [],
      "stateMutability": "nonpayable",
      "type": "function"
    },
    {
      "inputs": [
        {
          "internalType": "uint256",
          "name": "amount",
          "type": "uint256"
        }
      ],
      "name": "depositAndStartStake",
      "outputs": [],
      "stateMutability": "nonpayable",
      "type": "function"
    },
    {
      "inputs": [
        {
          "internalType": "uint256",
          "name": "amount",
          "type": "uint256"
        }
      ],
      "name": "endStakeAndWithdraw",
      "outputs": [],
      "stateMutability": "nonpayable",
      "type": "function"
    },
    {
      "inputs": [],
      "name": "getBalance",
      "outputs": [
        {
          "internalType": "uint256",
          "name": "",
          "type": "uint256"
        }
      ],
      "stateMutability": "view",
      "type": "function",
      "constant": true
    },
    {
      "inputs": [],
      "name": "getStakedBalance",
      "outputs": [
        {
          "internalType": "uint256",
          "name": "",
          "type": "uint256"
        }
      ],
      "stateMutability": "view",
      "type": "function",
      "constant": true
    },
    {
      "inputs": [
        {
          "internalType": "uint256",
          "name": "",
          "type": "uint256"
        }
      ],
      "name": "rewardPeriods",
      "outputs": [
        {
          "internalType": "uint256",
          "name": "id",
          "type": "uint256"
        },
        {
          "internalType": "uint256",
          "name": "reward",
          "type": "uint256"
        },
        {
          "internalType": "uint256",
          "name": "from",
          "type": "uint256"
        },
        {
          "internalType": "uint256",
          "name": "to",
          "type": "uint256"
        },
        {
          "internalType": "uint256",
          "name": "lastUpdated",
          "type": "uint256"
        },
        {
          "internalType": "uint256",
          "name": "totalStaked",
          "type": "uint256"
        },
        {
          "internalType": "uint256",
          "name": "rewardPerTokenStaked",
          "type": "uint256"
        },
        {
          "internalType": "uint256",
          "name": "totalRewardsPaid",
          "type": "uint256"
        }
      ],
      "stateMutability": "view",
      "type": "function",
      "constant": true
    },
    {
      "inputs": [
        {
          "internalType": "uint256",
          "name": "",
          "type": "uint256"
        }
      ],
      "name": "stakers",
      "outputs": [
        {
          "internalType": "address",
          "name": "",
          "type": "address"
        }
      ],
      "stateMutability": "view",
      "type": "function",
      "constant": true
    },
    {
      "inputs": [
        {
          "internalType": "address",
          "name": "",
          "type": "address"
        }
      ],
      "name": "stakes",
      "outputs": [
        {
          "internalType": "uint256",
          "name": "",
          "type": "uint256"
        }
      ],
      "stateMutability": "view",
      "type": "function",
      "constant": true
    },
    {
      "inputs": [],
      "name": "totalStakes",
      "outputs": [
        {
          "internalType": "uint256",
          "name": "",
          "type": "uint256"
        }
      ],
      "stateMutability": "view",
      "type": "function",
      "constant": true
    },
    {
      "inputs": [
        {
          "internalType": "uint256",
          "name": "amount",
          "type": "uint256"
        }
      ],
      "name": "withdraw",
      "outputs": [],
      "stateMutability": "nonpayable",
      "type": "function"
    },
    {
      "inputs": [
        {
          "internalType": "uint256",
          "name": "reward",
          "type": "uint256"
        },
        {
          "internalType": "uint256",
          "name": "from",
          "type": "uint256"
        },
        {
          "internalType": "uint256",
          "name": "to",
          "type": "uint256"
        }
      ],
      "name": "newRewardPeriod",
      "outputs": [],
      "stateMutability": "nonpayable",
      "type": "function"
    },
    {
      "inputs": [],
      "name": "getRewardPeriodsCount",
      "outputs": [
        {
          "internalType": "uint256",
          "name": "",
          "type": "uint256"
        }
      ],
      "stateMutability": "view",
      "type": "function",
      "constant": true
    },
    {
      "inputs": [
        {
          "internalType": "uint256",
          "name": "index",
          "type": "uint256"
        }
      ],
      "name": "deleteRewardPeriod",
      "outputs": [],
      "stateMutability": "nonpayable",
      "type": "function"
    },
    {
      "inputs": [],
      "name": "rewardBalance",
      "outputs": [
        {
          "internalType": "uint256",
          "name": "",
          "type": "uint256"
        }
      ],
      "stateMutability": "view",
      "type": "function",
      "constant": true
    },
    {
      "inputs": [
        {
          "internalType": "uint256",
          "name": "amount",
          "type": "uint256"
        }
      ],
      "name": "startStake",
      "outputs": [],
      "stateMutability": "nonpayable",
      "type": "function"
    },
    {
      "inputs": [
        {
          "internalType": "uint256",
          "name": "amount",
          "type": "uint256"
        }
      ],
      "name": "endStake",
      "outputs": [],
      "stateMutability": "nonpayable",
      "type": "function"
    },
    {
      "inputs": [],
      "name": "claimableReward",
      "outputs": [
        {
          "internalType": "uint256",
          "name": "",
          "type": "uint256"
        }
      ],
      "stateMutability": "view",
      "type": "function",
      "constant": true
    },
    {
      "inputs": [],
      "name": "claimReward",
      "outputs": [],
      "stateMutability": "nonpayable",
      "type": "function"
    },
    {
      "inputs": [],
      "name": "getCurrentRewardPeriodId",
      "outputs": [
        {
          "internalType": "uint256",
          "name": "",
          "type": "uint256"
        }
      ],
      "stateMutability": "view",
      "type": "function",
      "constant": true
    },
    {
      "inputs": [],
      "name": "getRewardsStats",
      "outputs": [
        {
          "components": [
            {
              "internalType": "uint256",
              "name": "claimableRewards",
              "type": "uint256"
            },
            {
              "internalType": "uint256",
              "name": "rewardsPaid",
              "type": "uint256"
            },
            {
              "internalType": "uint256",
              "name": "rewardRate",
              "type": "uint256"
            },
            {
              "internalType": "uint256",
              "name": "totalRewardsPaid",
              "type": "uint256"
            }
          ],
          "internalType": "struct StakingRewardPool.RewardsStats",
          "name": "",
          "type": "tuple"
        }
      ],
      "stateMutability": "view",
      "type": "function",
      "constant": true
    },
    {
      "inputs": [],
      "name": "reset",
      "outputs": [],
      "stateMutability": "nonpayable",
      "type": "function"
    }
  ],
  "bytecode": "0x608060405260006009553480156200001657600080fd5b50604051620031a5380380620031a583398181016040528101906200003c9190620000e2565b818180806000806101000a81548173ffffffffffffffffffffffffffffffffffffffff021916908373ffffffffffffffffffffffffffffffffffffffff16021790555050505081600760006101000a81548173ffffffffffffffffffffffffffffffffffffffff021916908373ffffffffffffffffffffffffffffffffffffffff160217905550505062000171565b600081519050620000dc8162000157565b92915050565b60008060408385031215620000f657600080fd5b60006200010685828601620000cb565b92505060206200011985828601620000cb565b9150509250929050565b6000620001308262000137565b9050919050565b600073ffffffffffffffffffffffffffffffffffffffff82169050919050565b620001628162000123565b81146200016e57600080fd5b50565b61302480620001816000396000f3fe608060405234801561001057600080fd5b50600436106101425760003560e01c8063aa5c3ab4116100b8578063bf9befb11161007c578063bf9befb114610342578063d826f88f14610360578063d9c5fbed1461036a578063e7181edc14610386578063fad0138d146103a4578063fd5e6dd1146103c257610142565b8063aa5c3ab4146102c6578063aaf63640146102e4578063b51bd40f14610300578063b6b55f251461031c578063b88a802f1461033857610142565b80632ad7b6a91161010a5780632ad7b6a9146101fd5780632e1a7d4d1461021b57806333b365d6146102375780635865b9111461025357806376965867146102715780638252097d1461028f57610142565b80630cbe28d61461014757806312065fe01461016357806316934fc41461018157806318e01ec5146101b157806327e235e3146101cd575b600080fd5b610161600480360381019061015c9190612593565b6103f2565b005b61016b61048c565b6040516101789190612a99565b60405180910390f35b61019b60048036038101906101969190612541565b6104d3565b6040516101a89190612a99565b60405180910390f35b6101cb60048036038101906101c69190612593565b6104eb565b005b6101e760048036038101906101e29190612541565b6106f4565b6040516101f49190612a99565b60405180910390f35b61020561070c565b6040516102129190612a7e565b60405180910390f35b61023560048036038101906102309190612593565b6108bc565b005b610251600480360381019061024c91906125e5565b610acb565b005b61025b610cee565b6040516102689190612a99565b60405180910390f35b610279610e13565b6040516102869190612a99565b60405180910390f35b6102a960048036038101906102a49190612593565b610e5a565b6040516102bd989796959493929190612ab4565b60405180910390f35b6102ce610eb2565b6040516102db9190612a99565b60405180910390f35b6102fe60048036038101906102f99190612593565b610f64565b005b61031a60048036038101906103159190612593565b610f79565b005b61033660048036038101906103319190612593565b61104e565b005b61034061141a565b005b61034a61142c565b6040516103579190612a99565b60405180910390f35b610368611432565b005b610384600480360381019061037f9190612593565b611692565b005b61038e6116a7565b60405161039b9190612a99565b60405180910390f35b6103ac611822565b6040516103b99190612a99565b60405180910390f35b6103dc60048036038101906103d79190612593565b61182c565b6040516103e9919061285a565b60405180910390f35b6103fa61186b565b61040381611a4c565b600061040d610cee565b9050600060086001836104209190612c24565b81548110610457577f4e487b7100000000000000000000000000000000000000000000000000000000600052603260045260246000fd5b906000526020600020906008020190508281600501546104779190612c24565b8160050181905550610487611c4f565b505050565b6000600160003373ffffffffffffffffffffffffffffffffffffffff1673ffffffffffffffffffffffffffffffffffffffff16815260200190815260200160002054905090565b60056020528060005260406000206000915090505481565b8060088054905011610532576040517f08c379a00000000000000000000000000000000000000000000000000000000081526004016105299061297e565b60405180910390fd5b60008190505b600160088054905061054a9190612c24565b8110156106535760086001826105609190612b43565b81548110610597577f4e487b7100000000000000000000000000000000000000000000000000000000600052603260045260246000fd5b9060005260206000209060080201600882815481106105df577f4e487b7100000000000000000000000000000000000000000000000000000000600052603260045260246000fd5b90600052602060002090600802016000820154816000015560018201548160010155600282015481600201556003820154816003015560048201548160040155600582015481600501556006820154816006015560078201548160070155905050808061064b90612cca565b915050610538565b50600880548061068c577f4e487b7100000000000000000000000000000000000000000000000000000000600052603160045260246000fd5b600190038181906000526020600020906008020160008082016000905560018201600090556002820160009055600382016000905560048201600090556005820160009055600682016000905560078201600090555050905560088054905060098190555050565b60016020528060005260406000206000915090505481565b6107146124c5565b6000600a60003373ffffffffffffffffffffffffffffffffffffffff1673ffffffffffffffffffffffffffffffffffffffff1681526020019081526020016000206040518060600160405290816000820154815260200160018201548152602001600282015481525050905060006040518060800160405280600081526020016000815260200160008152602001600081525090506107b16116a7565b816000018181525050816040015181602001818152505060006107d2610cee565b905060008111156108b357600060086001836107ee9190612c24565b81548110610825577f4e487b7100000000000000000000000000000000000000000000000000000000600052603260045260246000fd5b90600052602060002090600802016040518061010001604052908160008201548152602001600182015481526020016002820154815260200160038201548152602001600482015481526020016005820154815260200160068201548152602001600782015481525050905061089a81611d3a565b8360400181815250508060e00151836060018181525050505b81935050505090565b80600160003373ffffffffffffffffffffffffffffffffffffffff1673ffffffffffffffffffffffffffffffffffffffff16815260200190815260200160002054101561093e576040517f08c379a000000000000000000000000000000000000000000000000000000000815260040161093590612a1e565b60405180910390fd5b80600160003373ffffffffffffffffffffffffffffffffffffffff1673ffffffffffffffffffffffffffffffffffffffff168152602001908152602001600020546109899190612c24565b600160003373ffffffffffffffffffffffffffffffffffffffff1673ffffffffffffffffffffffffffffffffffffffff1681526020019081526020016000208190555060008054906101000a900473ffffffffffffffffffffffffffffffffffffffff1673ffffffffffffffffffffffffffffffffffffffff1663a9059cbb33836040518363ffffffff1660e01b8152600401610a279291906128d5565b602060405180830381600087803b158015610a4157600080fd5b505af1158015610a55573d6000803e3d6000fd5b505050506040513d601f19601f82011682018060405250810190610a79919061256a565b503373ffffffffffffffffffffffffffffffffffffffff167f7084f5476618d8e60b11ef0d7d3f06914655adb8793e28ff7f018d4c76d505d582604051610ac09190612a99565b60405180910390a250565b60008311610b0e576040517f08c379a0000000000000000000000000000000000000000000000000000000008152600401610b05906129be565b60405180910390fd5b8181118015610b1c57504281115b610b5b576040517f08c379a0000000000000000000000000000000000000000000000000000000008152600401610b5290612a3e565b60405180910390fd5b60006008805490501480610bca575060086001600880549050610b7e9190612c24565b81548110610bb5577f4e487b7100000000000000000000000000000000000000000000000000000000600052603260045260246000fd5b90600052602060002090600802016003015482115b610c09576040517f08c379a0000000000000000000000000000000000000000000000000000000008152600401610c00906129fe565b60405180910390fd5b60086040518061010001604052806001600880549050610c299190612b43565b8152602001858152602001848152602001838152602001428152602001600081526020016000815260200160008152509080600181540180825580915050600190039060005260206000209060080201600090919091909150600082015181600001556020820151816001015560408201518160020155606082015181600301556080820151816004015560a0820151816005015560c0820151816006015560e082015181600701555050600880549050600981905550610ce983611d6b565b505050565b6000806009541415610d035760009050610e10565b600060088054905090505b6000811115610e0a5760006008600183610d289190612c24565b81548110610d5f577f4e487b7100000000000000000000000000000000000000000000000000000000600052603260045260246000fd5b90600052602060002090600802016040518061010001604052908160008201548152602001600182015481526020016002820154815260200160038201548152602001600482015481526020016005820154815260200160068201548152602001600782015481525050905042816040015111158015610de3575042816060015110155b15610df657806000015192505050610e10565b508080610e0290612ca0565b915050610d0e565b50600090505b90565b6000600560003373ffffffffffffffffffffffffffffffffffffffff1673ffffffffffffffffffffffffffffffffffffffff16815260200190815260200160002054905090565b60088181548110610e6a57600080fd5b90600052602060002090600802016000915090508060000154908060010154908060020154908060030154908060040154908060050154908060060154908060070154905088565b6000600760009054906101000a900473ffffffffffffffffffffffffffffffffffffffff1673ffffffffffffffffffffffffffffffffffffffff166370a08231306040518263ffffffff1660e01b8152600401610f0f919061285a565b60206040518083038186803b158015610f2757600080fd5b505afa158015610f3b573d6000803e3d6000fd5b505050506040513d601f19601f82011682018060405250810190610f5f91906125bc565b905090565b610f6d816103f2565b610f76816108bc565b50565b6000610f83610cee565b905060008111610fc8576040517f08c379a0000000000000000000000000000000000000000000000000000000008152600401610fbf9061295e565b60405180910390fd5b610fd061186b565b610fd982611e20565b60006008600183610fea9190612c24565b81548110611021577f4e487b7100000000000000000000000000000000000000000000000000000000600052603260045260246000fd5b906000526020600020906008020190508281600501546110419190612b43565b8160050181905550505050565b60008111611091576040517f08c379a000000000000000000000000000000000000000000000000000000000815260040161108890612a5e565b60405180910390fd5b8060008054906101000a900473ffffffffffffffffffffffffffffffffffffffff1673ffffffffffffffffffffffffffffffffffffffff1663dd62ed3e33306040518363ffffffff1660e01b81526004016110ed929190612875565b60206040518083038186803b15801561110557600080fd5b505afa158015611119573d6000803e3d6000fd5b505050506040513d601f19601f8201168201806040525081019061113d91906125bc565b101561117e576040517f08c379a00000000000000000000000000000000000000000000000000000000081526004016111759061299e565b60405180910390fd5b80600160003373ffffffffffffffffffffffffffffffffffffffff1673ffffffffffffffffffffffffffffffffffffffff168152602001908152602001600020546111c99190612b43565b600160003373ffffffffffffffffffffffffffffffffffffffff1673ffffffffffffffffffffffffffffffffffffffff16815260200190815260200160002081905550600360003373ffffffffffffffffffffffffffffffffffffffff1673ffffffffffffffffffffffffffffffffffffffff16815260200190815260200160002060009054906101000a900460ff16611319576001600360003373ffffffffffffffffffffffffffffffffffffffff1673ffffffffffffffffffffffffffffffffffffffff16815260200190815260200160002060006101000a81548160ff0219169083151502179055506002339080600181540180825580915050600190039060005260206000200160009091909190916101000a81548173ffffffffffffffffffffffffffffffffffffffff021916908373ffffffffffffffffffffffffffffffffffffffff1602179055505b60008054906101000a900473ffffffffffffffffffffffffffffffffffffffff1673ffffffffffffffffffffffffffffffffffffffff166323b872dd3330846040518463ffffffff1660e01b81526004016113769392919061289e565b602060405180830381600087803b15801561139057600080fd5b505af11580156113a4573d6000803e3d6000fd5b505050506040513d601f19601f820116820180604052508101906113c8919061256a565b503373ffffffffffffffffffffffffffffffffffffffff167f2da466a7b24304f47e87fa2e1e5a81b9831ce54fec19055ce277ca2f39ba42c48260405161140f9190612a99565b60405180910390a250565b61142261186b565b61142a611c4f565b565b60065481565b60005b6008805490508110156114e0576008818154811061147c577f4e487b7100000000000000000000000000000000000000000000000000000000600052603260045260246000fd5b90600052602060002090600802016000808201600090556001820160009055600282016000905560038201600090556004820160009055600582016000905560068201600090556007820160009055505080806114d890612cca565b915050611435565b50600060098190555060005b6002805490508110156115ca57600a600060028381548110611537577f4e487b7100000000000000000000000000000000000000000000000000000000600052603260045260246000fd5b9060005260206000200160009054906101000a900473ffffffffffffffffffffffffffffffffffffffff1673ffffffffffffffffffffffffffffffffffffffff1673ffffffffffffffffffffffffffffffffffffffff16815260200190815260200160002060008082016000905560018201600090556002820160009055505080806115c290612cca565b9150506114ec565b5060006115d5610eb2565b9050600760009054906101000a900473ffffffffffffffffffffffffffffffffffffffff1673ffffffffffffffffffffffffffffffffffffffff1663a9059cbb33836040518363ffffffff1660e01b81526004016116349291906128d5565b602060405180830381600087803b15801561164e57600080fd5b505af1158015611662573d6000803e3d6000fd5b505050506040513d601f19601f82011682018060405250810190611686919061256a565b5061168f612066565b50565b61169b8161104e565b6116a481610f79565b50565b6000806116b2610cee565b905060008114156116c757600091505061181f565b600060086001836116d89190612c24565b8154811061170f577f4e487b7100000000000000000000000000000000000000000000000000000000600052603260045260246000fd5b9060005260206000209060080201604051806101000160405290816000820154815260200160018201548152602001600282015481526020016003820154815260200160048201548152602001600582015481526020016006820154815260200160078201548152505090506000611786826121e6565b905060006117938261226a565b90506000600a60003373ffffffffffffffffffffffffffffffffffffffff1673ffffffffffffffffffffffffffffffffffffffff1681526020019081526020016000206040518060600160405290816000820154815260200160018201548152602001600282015481525050905060008160200151905082816118169190612b43565b96505050505050505b90565b6000600954905090565b6004818154811061183c57600080fd5b906000526020600020016000915054906101000a900473ffffffffffffffffffffffffffffffffffffffff1681565b6000611875610cee565b9050600081116118ba576040517f08c379a00000000000000000000000000000000000000000000000000000000081526004016118b19061295e565b60405180910390fd5b600060086001836118cb9190612c24565b81548110611902577f4e487b7100000000000000000000000000000000000000000000000000000000600052603260045260246000fd5b9060005260206000209060080201905060006119798260405180610100016040529081600082015481526020016001820154815260200160028201548152602001600382015481526020016004820154815260200160058201548152602001600682015481526020016007820154815250506121e6565b905060006119868261226a565b90506000600a60003373ffffffffffffffffffffffffffffffffffffffff1673ffffffffffffffffffffffffffffffffffffffff16815260200190815260200160002090508181600101546119db9190612b43565b81600101819055508281600001819055508360060154831015611a33576040517f08c379a0000000000000000000000000000000000000000000000000000000008152600401611a2a9061293e565b60405180910390fd5b8284600601819055504284600401819055505050505050565b80600560003373ffffffffffffffffffffffffffffffffffffffff1673ffffffffffffffffffffffffffffffffffffffff168152602001908152602001600020541015611ace576040517f08c379a0000000000000000000000000000000000000000000000000000000008152600401611ac59061291e565b60405180910390fd5b80600160003373ffffffffffffffffffffffffffffffffffffffff1673ffffffffffffffffffffffffffffffffffffffff16815260200190815260200160002054611b199190612b43565b600160003373ffffffffffffffffffffffffffffffffffffffff1673ffffffffffffffffffffffffffffffffffffffff1681526020019081526020016000208190555080600560003373ffffffffffffffffffffffffffffffffffffffff1673ffffffffffffffffffffffffffffffffffffffff16815260200190815260200160002054611ba79190612c24565b600560003373ffffffffffffffffffffffffffffffffffffffff1673ffffffffffffffffffffffffffffffffffffffff1681526020019081526020016000208190555080600654611bf89190612c24565b6006819055503373ffffffffffffffffffffffffffffffffffffffff167f79d3df6837cc49ff0e09fd3258e6e45594e0703445bb06825e9d75156eaee8f082604051611c449190612a99565b60405180910390a250565b6000600a60003373ffffffffffffffffffffffffffffffffffffffff1673ffffffffffffffffffffffffffffffffffffffff168152602001908152602001600020905060008160010154905060008114611d3657600082600101819055506000611cb7610cee565b905060006008600183611cca9190612c24565b81548110611d01577f4e487b7100000000000000000000000000000000000000000000000000000000600052603260045260246000fd5b90600052602060002090600802019050828160070154611d219190612b43565b8160070181905550611d333384612367565b50505b5050565b60008082604001518360600151611d519190612c24565b9050808360200151611d639190612b99565b915050919050565b600760009054906101000a900473ffffffffffffffffffffffffffffffffffffffff1673ffffffffffffffffffffffffffffffffffffffff166323b872dd3330846040518463ffffffff1660e01b8152600401611dca9392919061289e565b602060405180830381600087803b158015611de457600080fd5b505af1158015611df8573d6000803e3d6000fd5b505050506040513d601f19601f82011682018060405250810190611e1c919061256a565b5050565b60008111611e63576040517f08c379a0000000000000000000000000000000000000000000000000000000008152600401611e5a906128fe565b60405180910390fd5b80600160003373ffffffffffffffffffffffffffffffffffffffff1673ffffffffffffffffffffffffffffffffffffffff168152602001908152602001600020541015611ee5576040517f08c379a0000000000000000000000000000000000000000000000000000000008152600401611edc906129de565b60405180910390fd5b80600160003373ffffffffffffffffffffffffffffffffffffffff1673ffffffffffffffffffffffffffffffffffffffff16815260200190815260200160002054611f309190612c24565b600160003373ffffffffffffffffffffffffffffffffffffffff1673ffffffffffffffffffffffffffffffffffffffff1681526020019081526020016000208190555080600560003373ffffffffffffffffffffffffffffffffffffffff1673ffffffffffffffffffffffffffffffffffffffff16815260200190815260200160002054611fbe9190612b43565b600560003373ffffffffffffffffffffffffffffffffffffffff1673ffffffffffffffffffffffffffffffffffffffff168152602001908152602001600020819055508060065461200f9190612b43565b6006819055503373ffffffffffffffffffffffffffffffffffffffff167f9e71bc8eea02a63969f509818f2dafb9254532904319f9dbda79b67bd34a5f3d8260405161205b9190612a99565b60405180910390a250565b60005b6002805490508110156121db57600060016000600284815481106120b6577f4e487b7100000000000000000000000000000000000000000000000000000000600052603260045260246000fd5b9060005260206000200160009054906101000a900473ffffffffffffffffffffffffffffffffffffffff1673ffffffffffffffffffffffffffffffffffffffff1673ffffffffffffffffffffffffffffffffffffffff168152602001908152602001600020819055506000600560006002848154811061215f577f4e487b7100000000000000000000000000000000000000000000000000000000600052603260045260246000fd5b9060005260206000200160009054906101000a900473ffffffffffffffffffffffffffffffffffffffff1673ffffffffffffffffffffffffffffffffffffffff1673ffffffffffffffffffffffffffffffffffffffff1681526020019081526020016000208190555080806121d390612cca565b915050612069565b506000600681905550565b6000806121f283611d3a565b905060008360800151426122069190612c24565b9050600082826122169190612bca565b905060008560c00151905060008660a001511461225e578560a00151633b9aca00836122429190612bca565b61224c9190612b99565b8660c0015161225b9190612b43565b90505b80945050505050919050565b60008082141561227d5760009050612362565b6000600560003373ffffffffffffffffffffffffffffffffffffffff1673ffffffffffffffffffffffffffffffffffffffff1681526020019081526020016000205490506000600a60003373ffffffffffffffffffffffffffffffffffffffff1673ffffffffffffffffffffffffffffffffffffffff168152602001908152602001600020604051806060016040529081600082015481526020016001820154815260200160028201548152505090506000633b9aca008260000151866123449190612c24565b8461234f9190612bca565b6123599190612b99565b90508093505050505b919050565b6000600a60003373ffffffffffffffffffffffffffffffffffffffff1673ffffffffffffffffffffffffffffffffffffffff16815260200190815260200160002090508181600201546123ba9190612b43565b8160020181905550600760009054906101000a900473ffffffffffffffffffffffffffffffffffffffff1673ffffffffffffffffffffffffffffffffffffffff1663a9059cbb84846040518363ffffffff1660e01b815260040161241f9291906128d5565b602060405180830381600087803b15801561243957600080fd5b505af115801561244d573d6000803e3d6000fd5b505050506040513d601f19601f82011682018060405250810190612471919061256a565b508273ffffffffffffffffffffffffffffffffffffffff167fe2403640ba68fed3a2f88b7557551d1993f84b99bb10ff833f0cf8db0c5e0486836040516124b89190612a99565b60405180910390a2505050565b6040518060800160405280600081526020016000815260200160008152602001600081525090565b6000813590506124fc81612fa9565b92915050565b60008151905061251181612fc0565b92915050565b60008135905061252681612fd7565b92915050565b60008151905061253b81612fd7565b92915050565b60006020828403121561255357600080fd5b6000612561848285016124ed565b91505092915050565b60006020828403121561257c57600080fd5b600061258a84828501612502565b91505092915050565b6000602082840312156125a557600080fd5b60006125b384828501612517565b91505092915050565b6000602082840312156125ce57600080fd5b60006125dc8482850161252c565b91505092915050565b6000806000606084860312156125fa57600080fd5b600061260886828701612517565b935050602061261986828701612517565b925050604061262a86828701612517565b9150509250925092565b61263d81612c58565b82525050565b6000612650602e83612b32565b915061265b82612d71565b604082019050919050565b6000612673601883612b32565b915061267e82612dc0565b602082019050919050565b6000612696603283612b32565b91506126a182612de9565b604082019050919050565b60006126b9601d83612b32565b91506126c482612e38565b602082019050919050565b60006126dc601a83612b32565b91506126e782612e61565b602082019050919050565b60006126ff601683612b32565b915061270a82612e8a565b602082019050919050565b6000612722601c83612b32565b915061272d82612eb3565b602082019050919050565b6000612745601a83612b32565b915061275082612edc565b602082019050919050565b6000612768601983612b32565b915061277382612f05565b602082019050919050565b600061278b601a83612b32565b915061279682612f2e565b602082019050919050565b60006127ae601e83612b32565b91506127b982612f57565b602082019050919050565b60006127d1601e83612b32565b91506127dc82612f80565b602082019050919050565b6080820160008201516127fd600085018261283c565b506020820151612810602085018261283c565b506040820151612823604085018261283c565b506060820151612836606085018261283c565b50505050565b61284581612c96565b82525050565b61285481612c96565b82525050565b600060208201905061286f6000830184612634565b92915050565b600060408201905061288a6000830185612634565b6128976020830184612634565b9392505050565b60006060820190506128b36000830186612634565b6128c06020830185612634565b6128cd604083018461284b565b949350505050565b60006040820190506128ea6000830185612634565b6128f7602083018461284b565b9392505050565b6000602082019050818103600083015261291781612643565b9050919050565b6000602082019050818103600083015261293781612666565b9050919050565b6000602082019050818103600083015261295781612689565b9050919050565b60006020820190508181036000830152612977816126ac565b9050919050565b60006020820190508181036000830152612997816126cf565b9050919050565b600060208201905081810360008301526129b7816126f2565b9050919050565b600060208201905081810360008301526129d781612715565b9050919050565b600060208201905081810360008301526129f781612738565b9050919050565b60006020820190508181036000830152612a178161275b565b9050919050565b60006020820190508181036000830152612a378161277e565b9050919050565b60006020820190508181036000830152612a57816127a1565b9050919050565b60006020820190508181036000830152612a77816127c4565b9050919050565b6000608082019050612a9360008301846127e7565b92915050565b6000602082019050612aae600083018461284b565b92915050565b600061010082019050612aca600083018b61284b565b612ad7602083018a61284b565b612ae4604083018961284b565b612af1606083018861284b565b612afe608083018761284b565b612b0b60a083018661284b565b612b1860c083018561284b565b612b2560e083018461284b565b9998505050505050505050565b600082825260208201905092915050565b6000612b4e82612c96565b9150612b5983612c96565b9250827fffffffffffffffffffffffffffffffffffffffffffffffffffffffffffffffff03821115612b8e57612b8d612d13565b5b828201905092915050565b6000612ba482612c96565b9150612baf83612c96565b925082612bbf57612bbe612d42565b5b828204905092915050565b6000612bd582612c96565b9150612be083612c96565b9250817fffffffffffffffffffffffffffffffffffffffffffffffffffffffffffffffff0483118215151615612c1957612c18612d13565b5b828202905092915050565b6000612c2f82612c96565b9150612c3a83612c96565b925082821015612c4d57612c4c612d13565b5b828203905092915050565b6000612c6382612c76565b9050919050565b60008115159050919050565b600073ffffffffffffffffffffffffffffffffffffffff82169050919050565b6000819050919050565b6000612cab82612c96565b91506000821415612cbf57612cbe612d13565b5b600182039050919050565b6000612cd582612c96565b91507fffffffffffffffffffffffffffffffffffffffffffffffffffffffffffffffff821415612d0857612d07612d13565b5b600182019050919050565b7f4e487b7100000000000000000000000000000000000000000000000000000000600052601160045260246000fd5b7f4e487b7100000000000000000000000000000000000000000000000000000000600052601260045260246000fd5b7f5374616b65206d757374206265206120706f73697469766520616d6f756e742060008201527f67726561746572207468616e2030000000000000000000000000000000000000602082015250565b7f4e6f7420656e6f75676820746f6b656e73207374616b65640000000000000000600082015250565b7f52657761726420646973747269627574696f6e2073686f756c64206265206d6f60008201527f6e6f746f6e696320696e6372656173696e670000000000000000000000000000602082015250565b7f4e6f206163746976652072657761726420706572696f6420666f756e64000000600082015250565b7f496e76616c69642072657761726420706861736520696e646578000000000000600082015250565b7f496e73756666696369656e7420616c6c6f77616e636500000000000000000000600082015250565b7f496e76616c69642072657761726420706572696f6420616d6f756e7400000000600082015250565b7f4e6f7420656e6f75676820746f6b656e7320746f207374616b65000000000000600082015250565b7f496e76616c696420706572696f642073746172742074696d6500000000000000600082015250565b7f496e73756666696369656e7420746f6b656e2062616c616e6365000000000000600082015250565b7f496e76616c69642072657761726420706572696f6420696e74657276616c0000600082015250565b7f4465706f73697420616d6f756e742073686f756c64206e6f7420626520300000600082015250565b612fb281612c58565b8114612fbd57600080fd5b50565b612fc981612c6a565b8114612fd457600080fd5b50565b612fe081612c96565b8114612feb57600080fd5b5056fea26469706673582212205d224a1fb4f2cacb3dd58afa1b4dc6a73426d9d24589abdf638d27f08c19a6e664736f6c63430008040033",
  "immutableReferences": {},
  "source": "// SPDX-License-Identifier: MIT\npragma solidity ^0.8.0;\npragma abicoder v2;\n\nimport \"./StakingPool.sol\";\nimport \"@openzeppelin/contracts/utils/math/Math.sol\";\n\n/**\n * Pool contract to distribute reward tokens among LP token stakers proportionally to the amount and duration of the their stakes.\n * The owner can setup multiple reward periods each one with a pre-allocated amount of reward tokens to be distributed.\n * Users are free to add and remove tokens to their stake at any time.\n * Users can also claim their pending reward at any time.\n\n * The pool implements an efficient O(1) algo to distribute the rewards based on this paper:\n * https://uploads-ssl.webflow.com/5ad71ffeb79acc67c8bcdaba/5ad8d1193a40977462982470_scalable-reward-distribution-paper.pdf\n */\ncontract StakingRewardPool is StakingPool  {\n\n\n    event RewardPaid(address indexed user, uint256 reward);\n\n    struct RewardPeriod {\n        uint id;\n        uint reward;\n        uint from;\n        uint to;\n        uint lastUpdated; // when the totalStakedWeight was last updated (after last stake was ended)\n        uint totalStaked; // T: sum of all active stake deposits\n        uint rewardPerTokenStaked; // S: SUM(reward/T) - sum of all rewards distributed divided all active stakes\n        uint totalRewardsPaid; \n    }\n\n    struct UserInfo {\n        uint userRewardPerTokenStaked;\n        uint pendingRewards;\n        uint rewardsPaid;\n    }\n\n    struct RewardsStats {\n        // user stats\n        uint claimableRewards;\n        uint rewardsPaid;\n        // general stats\n        uint rewardRate;\n        uint totalRewardsPaid;\n    }\n\n\n    IERC20 internal rewardToken;\n    RewardPeriod[] public rewardPeriods;\n    uint rewardPeriodsCount = 0;\n\n\n    mapping(address => UserInfo) userInfos;\n\n    // mapping(address => uint) userRewardPerTokenStaked;\n    // mapping (address => uint) pendingRewards;\n\n    uint constant rewardPrecision = 1e9;\n\n\n    constructor(address _rewardTokenAddress, address _lpTokenAddress) StakingPool(_rewardTokenAddress, _lpTokenAddress) {\n        rewardToken = IERC20(_rewardTokenAddress);\n    }\n\n\n    function newRewardPeriod(uint reward, uint from, uint to) public {\n        require(reward > 0, \"Invalid reward period amount\");\n        require(to > from && to > block.timestamp, \"Invalid reward period interval\");\n        require(rewardPeriods.length == 0 || from > rewardPeriods[rewardPeriods.length-1].to, \"Invalid period start time\");\n\n        rewardPeriods.push(RewardPeriod(rewardPeriods.length+1, reward, from, to, block.timestamp, 0, 0, 0));\n        rewardPeriodsCount = rewardPeriods.length;\n        depositReward(reward);\n    }\n\n\n    function getRewardPeriodsCount() public view returns(uint) {\n        return rewardPeriodsCount;\n    }\n\n\n    function deleteRewardPeriod(uint index) public {\n        require(rewardPeriods.length > index, \"Invalid reward phase index\");\n        for (uint i=index; i<rewardPeriods.length-1; i++) {\n            rewardPeriods[i] = rewardPeriods[i+1];\n        }\n        rewardPeriods.pop();\n        rewardPeriodsCount = rewardPeriods.length;\n    }\n\n\n    function rewardBalance() public view returns (uint) {\n        return rewardToken.balanceOf(address(this));\n    }\n\n\n    // Deposit ETB token rewards into this contract\n    function depositReward(uint amount) internal {\n        rewardToken.transferFrom(msg.sender, address(this), amount);\n    }\n\n\n    function startStake(uint amount) public override {\n        uint periodId = getCurrentRewardPeriodId();\n        require(periodId > 0, \"No active reward period found\");\n        update();\n\n        super.startStake(amount);\n\n        // update total tokens staked\n        RewardPeriod storage period = rewardPeriods[periodId-1];\n        period.totalStaked = period.totalStaked + amount;\n    }\n\n    function endStake(uint amount) public override {\n        update();\n        super.endStake(amount);\n\n        // update total tokens staked\n        uint periodId = getCurrentRewardPeriodId();\n        RewardPeriod storage period = rewardPeriods[periodId-1];\n        period.totalStaked = period.totalStaked - amount;\n        \n        claim();\n    }\n\n    function claimableReward() view public returns (uint) {\n        uint periodId = getCurrentRewardPeriodId();\n        if (periodId == 0) return 0;\n\n        RewardPeriod memory period = rewardPeriods[periodId-1];\n        uint newRewardDistribution = calculateRewardDistribution(period);\n        uint reward = calculateReward(newRewardDistribution);\n\n        UserInfo memory userInfo = userInfos[msg.sender];\n        uint pending = userInfo.pendingRewards;\n\n        return pending + reward;\n    }\n \n    function claimReward() public {\n        update();\n        claim();\n    }\n\n    function claim() internal {\n        UserInfo storage userInfo = userInfos[msg.sender];\n        uint rewards = userInfo.pendingRewards;\n        if (rewards != 0) {\n            userInfo.pendingRewards = 0;\n\n            uint periodId = getCurrentRewardPeriodId();\n            RewardPeriod storage period = rewardPeriods[periodId-1];\n            period.totalRewardsPaid = period.totalRewardsPaid + rewards;\n\n            payReward(msg.sender, rewards);\n        }\n    }\n\n    function getCurrentRewardPeriodId() public view returns (uint) {\n        if (rewardPeriodsCount == 0) return 0;\n        for (uint i=rewardPeriods.length; i>0; i--) {\n            RewardPeriod memory period = rewardPeriods[i-1];\n            if (period.from <= block.timestamp && period.to >= block.timestamp) {\n                return period.id;\n            }\n        }\n        return 0;\n    }\n\n\n    function getRewardsStats() public view returns (RewardsStats memory) {\n        UserInfo memory userInfo = userInfos[msg.sender];\n\n        RewardsStats memory stats = RewardsStats(0, 0, 0, 0);\n        // user stats\n        stats.claimableRewards = claimableReward();\n        stats.rewardsPaid = userInfo.rewardsPaid;\n\n        // reward period stats\n        uint periodId = getCurrentRewardPeriodId();\n        if (periodId > 0) {\n            RewardPeriod memory period = rewardPeriods[periodId-1];\n            stats.rewardRate = rewardRate(period);\n            stats.totalRewardsPaid = period.totalRewardsPaid;\n        }\n\n        return stats;\n    }\n\n\n    function rewardRate(RewardPeriod memory period) internal pure returns (uint) {\n        uint duration = period.to - period.from;\n        return period.reward / duration;\n    }\n\n    function payReward(address account, uint reward) internal {\n        UserInfo storage userInfo = userInfos[msg.sender];\n        userInfo.rewardsPaid = userInfo.rewardsPaid + reward;\n        rewardToken.transfer(account, reward);\n\n        emit RewardPaid(account, reward);\n    }\n\n\n    /// Reward calcualtion logic\n\n    function update() internal {\n        uint periodId = getCurrentRewardPeriodId();\n        require(periodId > 0, \"No active reward period found\");\n\n        RewardPeriod storage period = rewardPeriods[periodId-1];\n        uint rewardDistribuedPerToken = calculateRewardDistribution(period);\n\n        // update pending rewards reward since rewardPerTokenStaked was updated\n        uint reward = calculateReward(rewardDistribuedPerToken);\n        UserInfo storage userInfo = userInfos[msg.sender];\n        userInfo.pendingRewards = userInfo.pendingRewards + reward;\n        userInfo.userRewardPerTokenStaked = rewardDistribuedPerToken;\n\n        require(rewardDistribuedPerToken >= period.rewardPerTokenStaked, \"Reward distribution should be monotonic increasing\");\n\n        period.rewardPerTokenStaked = rewardDistribuedPerToken;\n        period.lastUpdated = block.timestamp;\n    }\n\n\n    function calculateRewardDistribution(RewardPeriod memory period) view internal returns (uint) {\n\n        // calculate total reward to be distributed since period.lastUpdated\n        uint rate = rewardRate(period);\n        uint deltaTime = block.timestamp - period.lastUpdated;\n        uint reward = deltaTime * rate;\n\n        uint newRewardPerTokenStaked = period.rewardPerTokenStaked;  // 0\n        if (period.totalStaked != 0) {\n            // S = S + r / T\n            newRewardPerTokenStaked = period.rewardPerTokenStaked + ( \n                reward * rewardPrecision / (period.totalStaked)\n            );\n        }\n\n        return newRewardPerTokenStaked;\n    }\n\n\n    function calculateReward(uint rewardDistribution) internal view returns (uint) {\n        if (rewardDistribution == 0) return 0;\n\n        uint staked = stakes[msg.sender];\n        UserInfo memory userInfo = userInfos[msg.sender];\n        uint reward = staked *(\n            rewardDistribution - (userInfo.userRewardPerTokenStaked)\n        ) / (rewardPrecision);\n\n        return reward;\n    }\n\n\n    // HELPERS - Used in tests\n\n    function reset() public override {\n        for (uint i=0; i<rewardPeriods.length; i++) {\n            delete rewardPeriods[i];\n        }\n        rewardPeriodsCount = 0;\n        for (uint i=0; i<usersArray.length; i++) {\n            delete userInfos[usersArray[i]];\n        }\n        // return leftover rewards to owner\n        uint leftover = rewardBalance();\n        rewardToken.transfer(msg.sender, leftover);\n        super.reset();\n    }\n\n}",
  "sourcePath": "C:\\Users\\PC\\Desktop\\repos\\crystal-staking2\\contracts\\StakingRewardPool.sol",
  "compiler": {
    "name": "solc",
    "version": "0.8.4+commit.c7e474f2.Emscripten.clang"
  },
  "schemaVersion": "3.4.16",
  "updatedAt": "2024-02-28T15:55:19.042Z",
  "networkType": "ethereum",
  "devdoc": {
    "kind": "dev",
    "methods": {},
    "version": 1
  },
  "userdoc": {
    "kind": "user",
    "methods": {},
    "notice": "Pool contract to distribute reward tokens among LP token stakers proportionally to the amount and duration of the their stakes. The owner can setup multiple reward periods each one with a pre-allocated amount of reward tokens to be distributed. Users are free to add and remove tokens to their stake at any time. Users can also claim their pending reward at any time. The pool implements an efficient O(1) algo to distribute the rewards based on this paper: https://uploads-ssl.webflow.com/5ad71ffeb79acc67c8bcdaba/5ad8d1193a40977462982470_scalable-reward-distribution-paper.pdf",
    "version": 1
  }
}