{
  "contractName": "StakingPool",
  "abi": [
    {
      "inputs": [
        {
          "internalType": "address",
          "name": "_rewardTokenAddress",
          "type": "address"
        },
        {
          "internalType": "address",
          "name": "_lpTokenAddress",
          "type": "address"
        }
      ],
      "stateMutability": "nonpayable",
      "type": "constructor"
    },
    {
      "anonymous": false,
      "inputs": [
        {
          "indexed": true,
          "internalType": "address",
          "name": "user",
          "type": "address"
        },
        {
          "indexed": false,
          "internalType": "uint256",
          "name": "amount",
          "type": "uint256"
        }
      ],
      "name": "Deposited",
      "type": "event"
    },
    {
      "anonymous": false,
      "inputs": [
        {
          "indexed": true,
          "internalType": "address",
          "name": "user",
          "type": "address"
        },
        {
          "indexed": false,
          "internalType": "uint256",
          "name": "amount",
          "type": "uint256"
        }
      ],
      "name": "Staked",
      "type": "event"
    },
    {
      "anonymous": false,
      "inputs": [
        {
          "indexed": true,
          "internalType": "address",
          "name": "user",
          "type": "address"
        },
        {
          "indexed": false,
          "internalType": "uint256",
          "name": "amount",
          "type": "uint256"
        }
      ],
      "name": "UnStaked",
      "type": "event"
    },
    {
      "anonymous": false,
      "inputs": [
        {
          "indexed": true,
          "internalType": "address",
          "name": "user",
          "type": "address"
        },
        {
          "indexed": false,
          "internalType": "uint256",
          "name": "amount",
          "type": "uint256"
        }
      ],
      "name": "Withdrawn",
      "type": "event"
    },
    {
      "inputs": [
        {
          "internalType": "address",
          "name": "",
          "type": "address"
        }
      ],
      "name": "balances",
      "outputs": [
        {
          "internalType": "uint256",
          "name": "",
          "type": "uint256"
        }
      ],
      "stateMutability": "view",
      "type": "function",
      "constant": true
    },
    {
      "inputs": [
        {
          "internalType": "uint256",
          "name": "amount",
          "type": "uint256"
        }
      ],
      "name": "deposit",
      "outputs": [],
      "stateMutability": "nonpayable",
      "type": "function"
    },
    {
      "inputs": [],
      "name": "getBalance",
      "outputs": [
        {
          "internalType": "uint256",
          "name": "",
          "type": "uint256"
        }
      ],
      "stateMutability": "view",
      "type": "function",
      "constant": true
    },
    {
      "inputs": [
        {
          "internalType": "uint256",
          "name": "",
          "type": "uint256"
        }
      ],
      "name": "stakers",
      "outputs": [
        {
          "internalType": "address",
          "name": "",
          "type": "address"
        }
      ],
      "stateMutability": "view",
      "type": "function",
      "constant": true
    },
    {
      "inputs": [
        {
          "internalType": "address",
          "name": "",
          "type": "address"
        }
      ],
      "name": "stakes",
      "outputs": [
        {
          "internalType": "uint256",
          "name": "",
          "type": "uint256"
        }
      ],
      "stateMutability": "view",
      "type": "function",
      "constant": true
    },
    {
      "inputs": [],
      "name": "totalStakes",
      "outputs": [
        {
          "internalType": "uint256",
          "name": "",
          "type": "uint256"
        }
      ],
      "stateMutability": "view",
      "type": "function",
      "constant": true
    },
    {
      "inputs": [
        {
          "internalType": "uint256",
          "name": "amount",
          "type": "uint256"
        }
      ],
      "name": "withdraw",
      "outputs": [],
      "stateMutability": "nonpayable",
      "type": "function"
    },
    {
      "inputs": [
        {
          "internalType": "uint256",
          "name": "amount",
          "type": "uint256"
        }
      ],
      "name": "depositAndStartStake",
      "outputs": [],
      "stateMutability": "nonpayable",
      "type": "function"
    },
    {
      "inputs": [
        {
          "internalType": "uint256",
          "name": "amount",
          "type": "uint256"
        }
      ],
      "name": "endStakeAndWithdraw",
      "outputs": [],
      "stateMutability": "nonpayable",
      "type": "function"
    },
    {
      "inputs": [
        {
          "internalType": "uint256",
          "name": "amount",
          "type": "uint256"
        }
      ],
      "name": "startStake",
      "outputs": [],
      "stateMutability": "nonpayable",
      "type": "function"
    },
    {
      "inputs": [
        {
          "internalType": "uint256",
          "name": "amount",
          "type": "uint256"
        }
      ],
      "name": "endStake",
      "outputs": [],
      "stateMutability": "nonpayable",
      "type": "function"
    },
    {
      "inputs": [],
      "name": "getStakedBalance",
      "outputs": [
        {
          "internalType": "uint256",
          "name": "",
          "type": "uint256"
        }
      ],
      "stateMutability": "view",
      "type": "function",
      "constant": true
    },
    {
      "inputs": [],
      "name": "reset",
      "outputs": [],
      "stateMutability": "nonpayable",
      "type": "function"
    }
  ],
  "bytecode": "0x60806040523480156200001157600080fd5b50604051620016d1380380620016d1833981810160405281019062000037919062000098565b80806000806101000a81548173ffffffffffffffffffffffffffffffffffffffff021916908373ffffffffffffffffffffffffffffffffffffffff16021790555050505062000127565b60008151905062000092816200010d565b92915050565b60008060408385031215620000ac57600080fd5b6000620000bc8582860162000081565b9250506020620000cf8582860162000081565b9150509250929050565b6000620000e682620000ed565b9050919050565b600073ffffffffffffffffffffffffffffffffffffffff82169050919050565b6200011881620000d9565b81146200012457600080fd5b50565b61159a80620001376000396000f3fe608060405234801561001057600080fd5b50600436106100cf5760003560e01c8063aaf636401161008c578063bf9befb111610066578063bf9befb1146101fc578063d826f88f1461021a578063d9c5fbed14610224578063fd5e6dd114610240576100cf565b8063aaf63640146101a8578063b51bd40f146101c4578063b6b55f25146101e0576100cf565b80630cbe28d6146100d457806312065fe0146100f057806316934fc41461010e57806327e235e31461013e5780632e1a7d4d1461016e578063769658671461018a575b600080fd5b6100ee60048036038101906100e99190610fe7565b610270565b005b6100f8610473565b604051610105919061128d565b60405180910390f35b61012860048036038101906101239190610f95565b6104ba565b604051610135919061128d565b60405180910390f35b61015860048036038101906101539190610f95565b6104d2565b604051610165919061128d565b60405180910390f35b61018860048036038101906101839190610fe7565b6104ea565b005b6101926106f9565b60405161019f919061128d565b60405180910390f35b6101c260048036038101906101bd9190610fe7565b610740565b005b6101de60048036038101906101d99190610fe7565b610755565b005b6101fa60048036038101906101f59190610fe7565b61099b565b005b610204610d67565b604051610211919061128d565b60405180910390f35b610222610d6d565b005b61023e60048036038101906102399190610fe7565b610eed565b005b61025a60048036038101906102559190610fe7565b610f02565b6040516102679190611129565b60405180910390f35b80600560003373ffffffffffffffffffffffffffffffffffffffff1673ffffffffffffffffffffffffffffffffffffffff1681526020019081526020016000205410156102f2576040517f08c379a00000000000000000000000000000000000000000000000000000000081526004016102e9906111ed565b60405180910390fd5b80600160003373ffffffffffffffffffffffffffffffffffffffff1673ffffffffffffffffffffffffffffffffffffffff1681526020019081526020016000205461033d91906112b9565b600160003373ffffffffffffffffffffffffffffffffffffffff1673ffffffffffffffffffffffffffffffffffffffff1681526020019081526020016000208190555080600560003373ffffffffffffffffffffffffffffffffffffffff1673ffffffffffffffffffffffffffffffffffffffff168152602001908152602001600020546103cb919061130f565b600560003373ffffffffffffffffffffffffffffffffffffffff1673ffffffffffffffffffffffffffffffffffffffff168152602001908152602001600020819055508060065461041c919061130f565b6006819055503373ffffffffffffffffffffffffffffffffffffffff167f79d3df6837cc49ff0e09fd3258e6e45594e0703445bb06825e9d75156eaee8f082604051610468919061128d565b60405180910390a250565b6000600160003373ffffffffffffffffffffffffffffffffffffffff1673ffffffffffffffffffffffffffffffffffffffff16815260200190815260200160002054905090565b60056020528060005260406000206000915090505481565b60016020528060005260406000206000915090505481565b80600160003373ffffffffffffffffffffffffffffffffffffffff1673ffffffffffffffffffffffffffffffffffffffff16815260200190815260200160002054101561056c576040517f08c379a00000000000000000000000000000000000000000000000000000000081526004016105639061124d565b60405180910390fd5b80600160003373ffffffffffffffffffffffffffffffffffffffff1673ffffffffffffffffffffffffffffffffffffffff168152602001908152602001600020546105b7919061130f565b600160003373ffffffffffffffffffffffffffffffffffffffff1673ffffffffffffffffffffffffffffffffffffffff1681526020019081526020016000208190555060008054906101000a900473ffffffffffffffffffffffffffffffffffffffff1673ffffffffffffffffffffffffffffffffffffffff1663a9059cbb33836040518363ffffffff1660e01b81526004016106559291906111a4565b602060405180830381600087803b15801561066f57600080fd5b505af1158015610683573d6000803e3d6000fd5b505050506040513d601f19601f820116820180604052508101906106a79190610fbe565b503373ffffffffffffffffffffffffffffffffffffffff167f7084f5476618d8e60b11ef0d7d3f06914655adb8793e28ff7f018d4c76d505d5826040516106ee919061128d565b60405180910390a250565b6000600560003373ffffffffffffffffffffffffffffffffffffffff1673ffffffffffffffffffffffffffffffffffffffff16815260200190815260200160002054905090565b61074981610270565b610752816104ea565b50565b60008111610798576040517f08c379a000000000000000000000000000000000000000000000000000000000815260040161078f906111cd565b60405180910390fd5b80600160003373ffffffffffffffffffffffffffffffffffffffff1673ffffffffffffffffffffffffffffffffffffffff16815260200190815260200160002054101561081a576040517f08c379a00000000000000000000000000000000000000000000000000000000081526004016108119061122d565b60405180910390fd5b80600160003373ffffffffffffffffffffffffffffffffffffffff1673ffffffffffffffffffffffffffffffffffffffff16815260200190815260200160002054610865919061130f565b600160003373ffffffffffffffffffffffffffffffffffffffff1673ffffffffffffffffffffffffffffffffffffffff1681526020019081526020016000208190555080600560003373ffffffffffffffffffffffffffffffffffffffff1673ffffffffffffffffffffffffffffffffffffffff168152602001908152602001600020546108f391906112b9565b600560003373ffffffffffffffffffffffffffffffffffffffff1673ffffffffffffffffffffffffffffffffffffffff168152602001908152602001600020819055508060065461094491906112b9565b6006819055503373ffffffffffffffffffffffffffffffffffffffff167f9e71bc8eea02a63969f509818f2dafb9254532904319f9dbda79b67bd34a5f3d82604051610990919061128d565b60405180910390a250565b600081116109de576040517f08c379a00000000000000000000000000000000000000000000000000000000081526004016109d59061126d565b60405180910390fd5b8060008054906101000a900473ffffffffffffffffffffffffffffffffffffffff1673ffffffffffffffffffffffffffffffffffffffff1663dd62ed3e33306040518363ffffffff1660e01b8152600401610a3a929190611144565b60206040518083038186803b158015610a5257600080fd5b505afa158015610a66573d6000803e3d6000fd5b505050506040513d601f19601f82011682018060405250810190610a8a9190611010565b1015610acb576040517f08c379a0000000000000000000000000000000000000000000000000000000008152600401610ac29061120d565b60405180910390fd5b80600160003373ffffffffffffffffffffffffffffffffffffffff1673ffffffffffffffffffffffffffffffffffffffff16815260200190815260200160002054610b1691906112b9565b600160003373ffffffffffffffffffffffffffffffffffffffff1673ffffffffffffffffffffffffffffffffffffffff16815260200190815260200160002081905550600360003373ffffffffffffffffffffffffffffffffffffffff1673ffffffffffffffffffffffffffffffffffffffff16815260200190815260200160002060009054906101000a900460ff16610c66576001600360003373ffffffffffffffffffffffffffffffffffffffff1673ffffffffffffffffffffffffffffffffffffffff16815260200190815260200160002060006101000a81548160ff0219169083151502179055506002339080600181540180825580915050600190039060005260206000200160009091909190916101000a81548173ffffffffffffffffffffffffffffffffffffffff021916908373ffffffffffffffffffffffffffffffffffffffff1602179055505b60008054906101000a900473ffffffffffffffffffffffffffffffffffffffff1673ffffffffffffffffffffffffffffffffffffffff166323b872dd3330846040518463ffffffff1660e01b8152600401610cc39392919061116d565b602060405180830381600087803b158015610cdd57600080fd5b505af1158015610cf1573d6000803e3d6000fd5b505050506040513d601f19601f82011682018060405250810190610d159190610fbe565b503373ffffffffffffffffffffffffffffffffffffffff167f2da466a7b24304f47e87fa2e1e5a81b9831ce54fec19055ce277ca2f39ba42c482604051610d5c919061128d565b60405180910390a250565b60065481565b60005b600280549050811015610ee25760006001600060028481548110610dbd577f4e487b7100000000000000000000000000000000000000000000000000000000600052603260045260246000fd5b9060005260206000200160009054906101000a900473ffffffffffffffffffffffffffffffffffffffff1673ffffffffffffffffffffffffffffffffffffffff1673ffffffffffffffffffffffffffffffffffffffff1681526020019081526020016000208190555060006005600060028481548110610e66577f4e487b7100000000000000000000000000000000000000000000000000000000600052603260045260246000fd5b9060005260206000200160009054906101000a900473ffffffffffffffffffffffffffffffffffffffff1673ffffffffffffffffffffffffffffffffffffffff1673ffffffffffffffffffffffffffffffffffffffff168152602001908152602001600020819055508080610eda9061138b565b915050610d70565b506000600681905550565b610ef68161099b565b610eff81610755565b50565b60048181548110610f1257600080fd5b906000526020600020016000915054906101000a900473ffffffffffffffffffffffffffffffffffffffff1681565b600081359050610f508161151f565b92915050565b600081519050610f6581611536565b92915050565b600081359050610f7a8161154d565b92915050565b600081519050610f8f8161154d565b92915050565b600060208284031215610fa757600080fd5b6000610fb584828501610f41565b91505092915050565b600060208284031215610fd057600080fd5b6000610fde84828501610f56565b91505092915050565b600060208284031215610ff957600080fd5b600061100784828501610f6b565b91505092915050565b60006020828403121561102257600080fd5b600061103084828501610f80565b91505092915050565b61104281611343565b82525050565b6000611055602e836112a8565b915061106082611403565b604082019050919050565b60006110786018836112a8565b915061108382611452565b602082019050919050565b600061109b6016836112a8565b91506110a68261147b565b602082019050919050565b60006110be601a836112a8565b91506110c9826114a4565b602082019050919050565b60006110e1601a836112a8565b91506110ec826114cd565b602082019050919050565b6000611104601e836112a8565b915061110f826114f6565b602082019050919050565b61112381611381565b82525050565b600060208201905061113e6000830184611039565b92915050565b60006040820190506111596000830185611039565b6111666020830184611039565b9392505050565b60006060820190506111826000830186611039565b61118f6020830185611039565b61119c604083018461111a565b949350505050565b60006040820190506111b96000830185611039565b6111c6602083018461111a565b9392505050565b600060208201905081810360008301526111e681611048565b9050919050565b600060208201905081810360008301526112068161106b565b9050919050565b600060208201905081810360008301526112268161108e565b9050919050565b60006020820190508181036000830152611246816110b1565b9050919050565b60006020820190508181036000830152611266816110d4565b9050919050565b60006020820190508181036000830152611286816110f7565b9050919050565b60006020820190506112a2600083018461111a565b92915050565b600082825260208201905092915050565b60006112c482611381565b91506112cf83611381565b9250827fffffffffffffffffffffffffffffffffffffffffffffffffffffffffffffffff03821115611304576113036113d4565b5b828201905092915050565b600061131a82611381565b915061132583611381565b925082821015611338576113376113d4565b5b828203905092915050565b600061134e82611361565b9050919050565b60008115159050919050565b600073ffffffffffffffffffffffffffffffffffffffff82169050919050565b6000819050919050565b600061139682611381565b91507fffffffffffffffffffffffffffffffffffffffffffffffffffffffffffffffff8214156113c9576113c86113d4565b5b600182019050919050565b7f4e487b7100000000000000000000000000000000000000000000000000000000600052601160045260246000fd5b7f5374616b65206d757374206265206120706f73697469766520616d6f756e742060008201527f67726561746572207468616e2030000000000000000000000000000000000000602082015250565b7f4e6f7420656e6f75676820746f6b656e73207374616b65640000000000000000600082015250565b7f496e73756666696369656e7420616c6c6f77616e636500000000000000000000600082015250565b7f4e6f7420656e6f75676820746f6b656e7320746f207374616b65000000000000600082015250565b7f496e73756666696369656e7420746f6b656e2062616c616e6365000000000000600082015250565b7f4465706f73697420616d6f756e742073686f756c64206e6f7420626520300000600082015250565b61152881611343565b811461153357600080fd5b50565b61153f81611355565b811461154a57600080fd5b50565b61155681611381565b811461156157600080fd5b5056fea26469706673582212208b11853db09c988d8d280d62903a4de5175c539a6bb6acca042971f03592a15e64736f6c63430008040033",
  "immutableReferences": {},
  "source": "// SPDX-License-Identifier: MIT\npragma solidity ^0.8.0;\npragma abicoder v2;\n\nimport \"./Wallet.sol\";\nimport \"@openzeppelin/contracts/utils/math/Math.sol\";\n\n\ncontract StakingPool is Wallet  {\n\n    using Math for uint256;\n\n    event Staked(address indexed user, uint amount);\n    event UnStaked(address indexed user, uint256 amount);\n\n    address[] public stakers; // addresses that have active stakes\n    mapping (address => uint) public stakes;\n    uint public totalStakes;\n \n    constructor(address _rewardTokenAddress, address _lpTokenAddress) Wallet(_lpTokenAddress) {}\n\n\n    function depositAndStartStake(uint256 amount) public {\n        deposit(amount);\n        startStake(amount);\n    }\n\n\n    function endStakeAndWithdraw(uint amount) public {\n        endStake(amount);\n        withdraw(amount);\n    }\n\n\n    function startStake(uint amount) virtual public {\n        require(amount > 0, \"Stake must be a positive amount greater than 0\");\n        require(balances[msg.sender] >= amount, \"Not enough tokens to stake\");\n\n        // move tokens from lp token balance to the staked balance\n        balances[msg.sender] = balances[msg.sender] - amount;\n        stakes[msg.sender] = stakes[msg.sender] + amount; \n       \n        totalStakes = totalStakes + amount;\n\n        emit Staked(msg.sender, amount);\n    }\n\n\n    function endStake(uint amount) virtual public {\n        require(stakes[msg.sender] >= amount, \"Not enough tokens staked\");\n\n        // return lp tokens to lp token balance\n        balances[msg.sender] = balances[msg.sender] + amount;\n        stakes[msg.sender] = stakes[msg.sender] - amount; \n\n        totalStakes = totalStakes - amount;\n\n        emit UnStaked(msg.sender, amount);\n    }\n\n\n    function getStakedBalance() public view returns (uint) {\n        return stakes[msg.sender];\n    }\n\n\n    function reset() public virtual  {\n        // reset user balances and stakes\n        for (uint i=0; i < usersArray.length; i++) {\n            balances[usersArray[i]] = 0;\n            stakes[usersArray[i]] = 0;\n        }\n        totalStakes = 0;\n    }\n}",
  "sourcePath": "C:\\Users\\PC\\Desktop\\repos\\crystal-staking2\\contracts\\StakingPool.sol",
  "compiler": {
    "name": "solc",
    "version": "0.8.4+commit.c7e474f2.Emscripten.clang"
  },
  "schemaVersion": "3.4.16",
  "updatedAt": "2024-02-28T15:54:36.879Z",
  "networkType": "ethereum",
  "devdoc": {
    "kind": "dev",
    "methods": {},
    "version": 1
  },
  "userdoc": {
    "kind": "user",
    "methods": {},
    "version": 1
  }
}