{
  "contractName": "Wallet",
  "abi": [
    {
      "inputs": [
        {
          "internalType": "address",
          "name": "_ThrusterLPTokenAddress",
          "type": "address"
        }
      ],
      "stateMutability": "nonpayable",
      "type": "constructor"
    },
    {
      "anonymous": false,
      "inputs": [
        {
          "indexed": true,
          "internalType": "address",
          "name": "user",
          "type": "address"
        },
        {
          "indexed": false,
          "internalType": "uint256",
          "name": "amount",
          "type": "uint256"
        }
      ],
      "name": "Deposited",
      "type": "event"
    },
    {
      "anonymous": false,
      "inputs": [
        {
          "indexed": true,
          "internalType": "address",
          "name": "user",
          "type": "address"
        },
        {
          "indexed": false,
          "internalType": "uint256",
          "name": "amount",
          "type": "uint256"
        }
      ],
      "name": "Withdrawn",
      "type": "event"
    },
    {
      "inputs": [
        {
          "internalType": "address",
          "name": "",
          "type": "address"
        }
      ],
      "name": "balances",
      "outputs": [
        {
          "internalType": "uint256",
          "name": "",
          "type": "uint256"
        }
      ],
      "stateMutability": "view",
      "type": "function"
    },
    {
      "inputs": [],
      "name": "getBalance",
      "outputs": [
        {
          "internalType": "uint256",
          "name": "",
          "type": "uint256"
        }
      ],
      "stateMutability": "view",
      "type": "function"
    },
    {
      "inputs": [
        {
          "internalType": "uint256",
          "name": "amount",
          "type": "uint256"
        }
      ],
      "name": "deposit",
      "outputs": [],
      "stateMutability": "nonpayable",
      "type": "function"
    },
    {
      "inputs": [
        {
          "internalType": "uint256",
          "name": "amount",
          "type": "uint256"
        }
      ],
      "name": "withdraw",
      "outputs": [],
      "stateMutability": "nonpayable",
      "type": "function"
    }
  ],
  "bytecode": "0x608060405234801561001057600080fd5b50604051610caa380380610caa8339818101604052810190610032919061008d565b806000806101000a81548173ffffffffffffffffffffffffffffffffffffffff021916908373ffffffffffffffffffffffffffffffffffffffff160217905550506100ff565b600081519050610087816100e8565b92915050565b60006020828403121561009f57600080fd5b60006100ad84828501610078565b91505092915050565b60006100c1826100c8565b9050919050565b600073ffffffffffffffffffffffffffffffffffffffff82169050919050565b6100f1816100b6565b81146100fc57600080fd5b50565b610b9c8061010e6000396000f3fe608060405234801561001057600080fd5b506004361061004c5760003560e01c806312065fe01461005157806327e235e31461006f5780632e1a7d4d1461009f578063b6b55f25146100bb575b600080fd5b6100596100d7565b6040516100669190610979565b60405180910390f35b61008960048036038101906100849190610765565b61011e565b6040516100969190610979565b60405180910390f35b6100b960048036038101906100b491906107b7565b610136565b005b6100d560048036038101906100d091906107b7565b610345565b005b6000600160003373ffffffffffffffffffffffffffffffffffffffff1673ffffffffffffffffffffffffffffffffffffffff16815260200190815260200160002054905090565b60016020528060005260406000206000915090505481565b80600160003373ffffffffffffffffffffffffffffffffffffffff1673ffffffffffffffffffffffffffffffffffffffff1681526020019081526020016000205410156101b8576040517f08c379a00000000000000000000000000000000000000000000000000000000081526004016101af90610939565b60405180910390fd5b80600160003373ffffffffffffffffffffffffffffffffffffffff1673ffffffffffffffffffffffffffffffffffffffff1681526020019081526020016000205461020391906109fb565b600160003373ffffffffffffffffffffffffffffffffffffffff1673ffffffffffffffffffffffffffffffffffffffff1681526020019081526020016000208190555060008054906101000a900473ffffffffffffffffffffffffffffffffffffffff1673ffffffffffffffffffffffffffffffffffffffff1663a9059cbb33836040518363ffffffff1660e01b81526004016102a19291906108f0565b602060405180830381600087803b1580156102bb57600080fd5b505af11580156102cf573d6000803e3d6000fd5b505050506040513d601f19601f820116820180604052508101906102f3919061078e565b503373ffffffffffffffffffffffffffffffffffffffff167f7084f5476618d8e60b11ef0d7d3f06914655adb8793e28ff7f018d4c76d505d58260405161033a9190610979565b60405180910390a250565b60008111610388576040517f08c379a000000000000000000000000000000000000000000000000000000000815260040161037f90610959565b60405180910390fd5b8060008054906101000a900473ffffffffffffffffffffffffffffffffffffffff1673ffffffffffffffffffffffffffffffffffffffff1663dd62ed3e33306040518363ffffffff1660e01b81526004016103e4929190610890565b60206040518083038186803b1580156103fc57600080fd5b505afa158015610410573d6000803e3d6000fd5b505050506040513d601f19601f8201168201806040525081019061043491906107e0565b1015610475576040517f08c379a000000000000000000000000000000000000000000000000000000000815260040161046c90610919565b60405180910390fd5b80600160003373ffffffffffffffffffffffffffffffffffffffff1673ffffffffffffffffffffffffffffffffffffffff168152602001908152602001600020546104c091906109a5565b600160003373ffffffffffffffffffffffffffffffffffffffff1673ffffffffffffffffffffffffffffffffffffffff16815260200190815260200160002081905550600360003373ffffffffffffffffffffffffffffffffffffffff1673ffffffffffffffffffffffffffffffffffffffff16815260200190815260200160002060009054906101000a900460ff16610610576001600360003373ffffffffffffffffffffffffffffffffffffffff1673ffffffffffffffffffffffffffffffffffffffff16815260200190815260200160002060006101000a81548160ff0219169083151502179055506002339080600181540180825580915050600190039060005260206000200160009091909190916101000a81548173ffffffffffffffffffffffffffffffffffffffff021916908373ffffffffffffffffffffffffffffffffffffffff1602179055505b60008054906101000a900473ffffffffffffffffffffffffffffffffffffffff1673ffffffffffffffffffffffffffffffffffffffff166323b872dd3330846040518463ffffffff1660e01b815260040161066d939291906108b9565b602060405180830381600087803b15801561068757600080fd5b505af115801561069b573d6000803e3d6000fd5b505050506040513d601f19601f820116820180604052508101906106bf919061078e565b503373ffffffffffffffffffffffffffffffffffffffff167f2da466a7b24304f47e87fa2e1e5a81b9831ce54fec19055ce277ca2f39ba42c4826040516107069190610979565b60405180910390a250565b60008135905061072081610b21565b92915050565b60008151905061073581610b38565b92915050565b60008135905061074a81610b4f565b92915050565b60008151905061075f81610b4f565b92915050565b60006020828403121561077757600080fd5b600061078584828501610711565b91505092915050565b6000602082840312156107a057600080fd5b60006107ae84828501610726565b91505092915050565b6000602082840312156107c957600080fd5b60006107d78482850161073b565b91505092915050565b6000602082840312156107f257600080fd5b600061080084828501610750565b91505092915050565b61081281610a2f565b82525050565b6000610825601683610994565b915061083082610aa6565b602082019050919050565b6000610848601a83610994565b915061085382610acf565b602082019050919050565b600061086b601e83610994565b915061087682610af8565b602082019050919050565b61088a81610a6d565b82525050565b60006040820190506108a56000830185610809565b6108b26020830184610809565b9392505050565b60006060820190506108ce6000830186610809565b6108db6020830185610809565b6108e86040830184610881565b949350505050565b60006040820190506109056000830185610809565b6109126020830184610881565b9392505050565b6000602082019050818103600083015261093281610818565b9050919050565b600060208201905081810360008301526109528161083b565b9050919050565b600060208201905081810360008301526109728161085e565b9050919050565b600060208201905061098e6000830184610881565b92915050565b600082825260208201905092915050565b60006109b082610a6d565b91506109bb83610a6d565b9250827fffffffffffffffffffffffffffffffffffffffffffffffffffffffffffffffff038211156109f0576109ef610a77565b5b828201905092915050565b6000610a0682610a6d565b9150610a1183610a6d565b925082821015610a2457610a23610a77565b5b828203905092915050565b6000610a3a82610a4d565b9050919050565b60008115159050919050565b600073ffffffffffffffffffffffffffffffffffffffff82169050919050565b6000819050919050565b7f4e487b7100000000000000000000000000000000000000000000000000000000600052601160045260246000fd5b7f496e73756666696369656e7420616c6c6f77616e636500000000000000000000600082015250565b7f496e73756666696369656e7420746f6b656e2062616c616e6365000000000000600082015250565b7f4465706f73697420616d6f756e742073686f756c64206e6f7420626520300000600082015250565b610b2a81610a2f565b8114610b3557600080fd5b50565b610b4181610a41565b8114610b4c57600080fd5b50565b610b5881610a6d565b8114610b6357600080fd5b5056fea2646970667358221220f042b178077a8912a7f3cd255abae817f82c62b3160839f8641170bcabc1f58364736f6c63430008040033",
  "immutableReferences": {},
  "source": "// SPDX-License-Identifier: MIT\npragma solidity ^0.8.0;\n\nimport \"@openzeppelin/contracts/token/ERC20/IERC20.sol\";\n// import \"../node_modules/@openzeppelin/contracts/utils/math/SafeMath.sol\";\n// import \"../node_modules/@openzeppelin/contracts/access/Ownable.sol\";\n\ncontract Wallet {\n\n    event Deposited(address indexed user, uint256 amount);\n    event Withdrawn(address indexed user, uint256 amount);\n\n\n    IERC20 internal ThrusterLP;\n\n    // Thruster LP token balances\n    mapping (address => uint256) public balances;\n\n    // users that deposited ThrusterLP tokens into their balances \n    address[] internal usersArray;\n    mapping (address => bool) internal users;\n\n\n    constructor(address _ThrusterLPTokenAddress) {\n        ThrusterLP = IERC20(_ThrusterLPTokenAddress);\n    }\n\n\n    function getBalance() external view returns (uint256) {\n        return balances[msg.sender];\n    }\n\n\n    function deposit(uint256 amount) public {\n        require(amount > 0, \"Deposit amount should not be 0\");\n        require(ThrusterLP.allowance(msg.sender, address(this)) >= amount, \"Insufficient allowance\");\n\n        balances[msg.sender] = balances[msg.sender] + amount;\n\n        // remember addresses that deposited tokens\n        if (!users[msg.sender]) {\n            users[msg.sender] = true;\n            usersArray.push(msg.sender);\n        }\n        \n        ThrusterLP.transferFrom(msg.sender, address(this), amount);\n\n        emit Deposited(msg.sender, amount);\n    }\n\n    function withdraw(uint256 amount) public {\n        require(balances[msg.sender] >= amount, \"Insufficient token balance\");\n\n        balances[msg.sender] = balances[msg.sender] - amount;\n        ThrusterLP.transfer(msg.sender, amount);\n\n        emit Withdrawn(msg.sender, amount);\n    }\n}",
  "sourcePath": "C:\\Users\\PC\\Desktop\\repos\\crystal-staking2\\contracts\\Wallet.sol",
  "compiler": {
    "name": "solc",
    "version": "0.8.4+commit.c7e474f2.Emscripten.clang"
  },
  "schemaVersion": "3.4.16",
  "updatedAt": "2024-02-28T15:52:35.813Z",
  "devdoc": {
    "kind": "dev",
    "methods": {},
    "version": 1
  },
  "userdoc": {
    "kind": "user",
    "methods": {},
    "version": 1
  }
}