{
  "contractName": "StakingPool",
  "abi": [
    {
      "inputs": [
        {
          "internalType": "address",
          "name": "_rewardTokenAddress",
          "type": "address"
        },
        {
          "internalType": "address",
          "name": "_lpTokenAddress",
          "type": "address"
        }
      ],
      "stateMutability": "nonpayable",
      "type": "constructor"
    },
    {
      "anonymous": false,
      "inputs": [
        {
          "indexed": true,
          "internalType": "address",
          "name": "user",
          "type": "address"
        },
        {
          "indexed": false,
          "internalType": "uint256",
          "name": "amount",
          "type": "uint256"
        }
      ],
      "name": "Deposited",
      "type": "event"
    },
    {
      "anonymous": false,
      "inputs": [
        {
          "indexed": true,
          "internalType": "address",
          "name": "previousOwner",
          "type": "address"
        },
        {
          "indexed": true,
          "internalType": "address",
          "name": "newOwner",
          "type": "address"
        }
      ],
      "name": "OwnershipTransferred",
      "type": "event"
    },
    {
      "anonymous": false,
      "inputs": [
        {
          "indexed": true,
          "internalType": "address",
          "name": "user",
          "type": "address"
        },
        {
          "indexed": false,
          "internalType": "uint256",
          "name": "amount",
          "type": "uint256"
        }
      ],
      "name": "Staked",
      "type": "event"
    },
    {
      "anonymous": false,
      "inputs": [
        {
          "indexed": true,
          "internalType": "address",
          "name": "user",
          "type": "address"
        },
        {
          "indexed": false,
          "internalType": "uint256",
          "name": "amount",
          "type": "uint256"
        }
      ],
      "name": "UnStaked",
      "type": "event"
    },
    {
      "anonymous": false,
      "inputs": [
        {
          "indexed": true,
          "internalType": "address",
          "name": "user",
          "type": "address"
        },
        {
          "indexed": false,
          "internalType": "uint256",
          "name": "amount",
          "type": "uint256"
        }
      ],
      "name": "Withdrawn",
      "type": "event"
    },
    {
      "inputs": [
        {
          "internalType": "address",
          "name": "",
          "type": "address"
        }
      ],
      "name": "balances",
      "outputs": [
        {
          "internalType": "uint256",
          "name": "",
          "type": "uint256"
        }
      ],
      "stateMutability": "view",
      "type": "function",
      "constant": true
    },
    {
      "inputs": [
        {
          "internalType": "uint256",
          "name": "amount",
          "type": "uint256"
        }
      ],
      "name": "deposit",
      "outputs": [],
      "stateMutability": "nonpayable",
      "type": "function"
    },
    {
      "inputs": [],
      "name": "getBalance",
      "outputs": [
        {
          "internalType": "uint256",
          "name": "",
          "type": "uint256"
        }
      ],
      "stateMutability": "view",
      "type": "function",
      "constant": true
    },
    {
      "inputs": [],
      "name": "owner",
      "outputs": [
        {
          "internalType": "address",
          "name": "",
          "type": "address"
        }
      ],
      "stateMutability": "view",
      "type": "function",
      "constant": true
    },
    {
      "inputs": [],
      "name": "renounceOwnership",
      "outputs": [],
      "stateMutability": "nonpayable",
      "type": "function"
    },
    {
      "inputs": [
        {
          "internalType": "uint256",
          "name": "",
          "type": "uint256"
        }
      ],
      "name": "stakers",
      "outputs": [
        {
          "internalType": "address",
          "name": "",
          "type": "address"
        }
      ],
      "stateMutability": "view",
      "type": "function",
      "constant": true
    },
    {
      "inputs": [
        {
          "internalType": "address",
          "name": "",
          "type": "address"
        }
      ],
      "name": "stakes",
      "outputs": [
        {
          "internalType": "uint256",
          "name": "",
          "type": "uint256"
        }
      ],
      "stateMutability": "view",
      "type": "function",
      "constant": true
    },
    {
      "inputs": [],
      "name": "totalStakes",
      "outputs": [
        {
          "internalType": "uint256",
          "name": "",
          "type": "uint256"
        }
      ],
      "stateMutability": "view",
      "type": "function",
      "constant": true
    },
    {
      "inputs": [
        {
          "internalType": "address",
          "name": "newOwner",
          "type": "address"
        }
      ],
      "name": "transferOwnership",
      "outputs": [],
      "stateMutability": "nonpayable",
      "type": "function"
    },
    {
      "inputs": [
        {
          "internalType": "uint256",
          "name": "amount",
          "type": "uint256"
        }
      ],
      "name": "withdraw",
      "outputs": [],
      "stateMutability": "nonpayable",
      "type": "function"
    },
    {
      "inputs": [
        {
          "internalType": "uint256",
          "name": "amount",
          "type": "uint256"
        }
      ],
      "name": "depositAndStartStake",
      "outputs": [],
      "stateMutability": "nonpayable",
      "type": "function"
    },
    {
      "inputs": [
        {
          "internalType": "uint256",
          "name": "amount",
          "type": "uint256"
        }
      ],
      "name": "endStakeAndWithdraw",
      "outputs": [],
      "stateMutability": "nonpayable",
      "type": "function"
    },
    {
      "inputs": [
        {
          "internalType": "uint256",
          "name": "amount",
          "type": "uint256"
        }
      ],
      "name": "startStake",
      "outputs": [],
      "stateMutability": "nonpayable",
      "type": "function"
    },
    {
      "inputs": [
        {
          "internalType": "uint256",
          "name": "amount",
          "type": "uint256"
        }
      ],
      "name": "endStake",
      "outputs": [],
      "stateMutability": "nonpayable",
      "type": "function"
    },
    {
      "inputs": [],
      "name": "getStakedBalance",
      "outputs": [
        {
          "internalType": "uint256",
          "name": "",
          "type": "uint256"
        }
      ],
      "stateMutability": "view",
      "type": "function",
      "constant": true
    },
    {
      "inputs": [],
      "name": "reset",
      "outputs": [],
      "stateMutability": "nonpayable",
      "type": "function"
    }
  ],
  "bytecode": "0x608060405234801562000010575f80fd5b5060405162001b3d38038062001b3d8339818101604052810190620000369190620001cd565b80620000576200004b620000a060201b60201c565b620000a760201b60201c565b8060015f6101000a81548173ffffffffffffffffffffffffffffffffffffffff021916908373ffffffffffffffffffffffffffffffffffffffff16021790555050505062000212565b5f33905090565b5f805f9054906101000a900473ffffffffffffffffffffffffffffffffffffffff169050815f806101000a81548173ffffffffffffffffffffffffffffffffffffffff021916908373ffffffffffffffffffffffffffffffffffffffff1602179055508173ffffffffffffffffffffffffffffffffffffffff168173ffffffffffffffffffffffffffffffffffffffff167f8be0079c531659141344cd1fd0a4f28419497f9722a3daafe3b4186f6b6457e060405160405180910390a35050565b5f80fd5b5f73ffffffffffffffffffffffffffffffffffffffff82169050919050565b5f62000197826200016c565b9050919050565b620001a9816200018b565b8114620001b4575f80fd5b50565b5f81519050620001c7816200019e565b92915050565b5f8060408385031215620001e657620001e562000168565b5b5f620001f585828601620001b7565b92505060206200020885828601620001b7565b9150509250929050565b61191d80620002205f395ff3fe608060405234801561000f575f80fd5b50600436106100fe575f3560e01c8063aaf6364011610095578063d826f88f11610064578063d826f88f14610270578063d9c5fbed1461027a578063f2fde38b14610296578063fd5e6dd1146102b2576100fe565b8063aaf63640146101fe578063b51bd40f1461021a578063b6b55f2514610236578063bf9befb114610252576100fe565b80632e1a7d4d116100d15780632e1a7d4d1461019c578063715018a6146101b857806376965867146101c25780638da5cb5b146101e0576100fe565b80630cbe28d61461010257806312065fe01461011e57806316934fc41461013c57806327e235e31461016c575b5f80fd5b61011c60048036038101906101179190611269565b6102e2565b005b6101266104f0565b60405161013391906112a3565b60405180910390f35b61015660048036038101906101519190611316565b610534565b60405161016391906112a3565b60405180910390f35b61018660048036038101906101819190611316565b610549565b60405161019391906112a3565b60405180910390f35b6101b660048036038101906101b19190611269565b61055e565b005b6101c061075d565b005b6101ca6107e4565b6040516101d791906112a3565b60405180910390f35b6101e8610828565b6040516101f59190611350565b60405180910390f35b61021860048036038101906102139190611269565b61084f565b005b610234600480360381019061022f9190611269565b610864565b005b610250600480360381019061024b9190611269565b610ab4565b005b61025a610e58565b60405161026791906112a3565b60405180910390f35b610278610e5e565b005b610294600480360381019061028f9190611269565b610ffa565b005b6102b060048036038101906102ab9190611316565b61100f565b005b6102cc60048036038101906102c79190611269565b611105565b6040516102d99190611350565b60405180910390f35b8060065f3373ffffffffffffffffffffffffffffffffffffffff1673ffffffffffffffffffffffffffffffffffffffff1681526020019081526020015f20541015610362576040517f08c379a0000000000000000000000000000000000000000000000000000000008152600401610359906113c3565b60405180910390fd5b6103b28160025f3373ffffffffffffffffffffffffffffffffffffffff1673ffffffffffffffffffffffffffffffffffffffff1681526020019081526020015f205461114090919063ffffffff16565b60025f3373ffffffffffffffffffffffffffffffffffffffff1673ffffffffffffffffffffffffffffffffffffffff1681526020019081526020015f20819055506104438160065f3373ffffffffffffffffffffffffffffffffffffffff1673ffffffffffffffffffffffffffffffffffffffff1681526020019081526020015f205461115590919063ffffffff16565b60065f3373ffffffffffffffffffffffffffffffffffffffff1673ffffffffffffffffffffffffffffffffffffffff1681526020019081526020015f20819055506104998160075461115590919063ffffffff16565b6007819055503373ffffffffffffffffffffffffffffffffffffffff167f79d3df6837cc49ff0e09fd3258e6e45594e0703445bb06825e9d75156eaee8f0826040516104e591906112a3565b60405180910390a250565b5f60025f3373ffffffffffffffffffffffffffffffffffffffff1673ffffffffffffffffffffffffffffffffffffffff1681526020019081526020015f2054905090565b6006602052805f5260405f205f915090505481565b6002602052805f5260405f205f915090505481565b8060025f3373ffffffffffffffffffffffffffffffffffffffff1673ffffffffffffffffffffffffffffffffffffffff1681526020019081526020015f205410156105de576040517f08c379a00000000000000000000000000000000000000000000000000000000081526004016105d59061142b565b60405180910390fd5b61062e8160025f3373ffffffffffffffffffffffffffffffffffffffff1673ffffffffffffffffffffffffffffffffffffffff1681526020019081526020015f205461115590919063ffffffff16565b60025f3373ffffffffffffffffffffffffffffffffffffffff1673ffffffffffffffffffffffffffffffffffffffff1681526020019081526020015f208190555060015f9054906101000a900473ffffffffffffffffffffffffffffffffffffffff1673ffffffffffffffffffffffffffffffffffffffff1663a9059cbb33836040518363ffffffff1660e01b81526004016106cb929190611449565b6020604051808303815f875af11580156106e7573d5f803e3d5ffd5b505050506040513d601f19601f8201168201806040525081019061070b91906114a5565b503373ffffffffffffffffffffffffffffffffffffffff167f7084f5476618d8e60b11ef0d7d3f06914655adb8793e28ff7f018d4c76d505d58260405161075291906112a3565b60405180910390a250565b61076561116a565b73ffffffffffffffffffffffffffffffffffffffff16610783610828565b73ffffffffffffffffffffffffffffffffffffffff16146107d9576040517f08c379a00000000000000000000000000000000000000000000000000000000081526004016107d09061151a565b60405180910390fd5b6107e25f611171565b565b5f60065f3373ffffffffffffffffffffffffffffffffffffffff1673ffffffffffffffffffffffffffffffffffffffff1681526020019081526020015f2054905090565b5f805f9054906101000a900473ffffffffffffffffffffffffffffffffffffffff16905090565b610858816102e2565b6108618161055e565b50565b5f81116108a6576040517f08c379a000000000000000000000000000000000000000000000000000000000815260040161089d906115a8565b60405180910390fd5b8060025f3373ffffffffffffffffffffffffffffffffffffffff1673ffffffffffffffffffffffffffffffffffffffff1681526020019081526020015f20541015610926576040517f08c379a000000000000000000000000000000000000000000000000000000000815260040161091d90611610565b60405180910390fd5b6109768160025f3373ffffffffffffffffffffffffffffffffffffffff1673ffffffffffffffffffffffffffffffffffffffff1681526020019081526020015f205461115590919063ffffffff16565b60025f3373ffffffffffffffffffffffffffffffffffffffff1673ffffffffffffffffffffffffffffffffffffffff1681526020019081526020015f2081905550610a078160065f3373ffffffffffffffffffffffffffffffffffffffff1673ffffffffffffffffffffffffffffffffffffffff1681526020019081526020015f205461114090919063ffffffff16565b60065f3373ffffffffffffffffffffffffffffffffffffffff1673ffffffffffffffffffffffffffffffffffffffff1681526020019081526020015f2081905550610a5d8160075461114090919063ffffffff16565b6007819055503373ffffffffffffffffffffffffffffffffffffffff167f9e71bc8eea02a63969f509818f2dafb9254532904319f9dbda79b67bd34a5f3d82604051610aa991906112a3565b60405180910390a250565b5f8111610af6576040517f08c379a0000000000000000000000000000000000000000000000000000000008152600401610aed90611678565b60405180910390fd5b8060015f9054906101000a900473ffffffffffffffffffffffffffffffffffffffff1673ffffffffffffffffffffffffffffffffffffffff1663dd62ed3e33306040518363ffffffff1660e01b8152600401610b53929190611696565b602060405180830381865afa158015610b6e573d5f803e3d5ffd5b505050506040513d601f19601f82011682018060405250810190610b9291906116d1565b1015610bd3576040517f08c379a0000000000000000000000000000000000000000000000000000000008152600401610bca90611746565b60405180910390fd5b610c238160025f3373ffffffffffffffffffffffffffffffffffffffff1673ffffffffffffffffffffffffffffffffffffffff1681526020019081526020015f205461114090919063ffffffff16565b60025f3373ffffffffffffffffffffffffffffffffffffffff1673ffffffffffffffffffffffffffffffffffffffff1681526020019081526020015f208190555060045f3373ffffffffffffffffffffffffffffffffffffffff1673ffffffffffffffffffffffffffffffffffffffff1681526020019081526020015f205f9054906101000a900460ff16610d6857600160045f3373ffffffffffffffffffffffffffffffffffffffff1673ffffffffffffffffffffffffffffffffffffffff1681526020019081526020015f205f6101000a81548160ff021916908315150217905550600333908060018154018082558091505060019003905f5260205f20015f9091909190916101000a81548173ffffffffffffffffffffffffffffffffffffffff021916908373ffffffffffffffffffffffffffffffffffffffff1602179055505b60015f9054906101000a900473ffffffffffffffffffffffffffffffffffffffff1673ffffffffffffffffffffffffffffffffffffffff166323b872dd3330846040518463ffffffff1660e01b8152600401610dc693929190611764565b6020604051808303815f875af1158015610de2573d5f803e3d5ffd5b505050506040513d601f19601f82011682018060405250810190610e0691906114a5565b503373ffffffffffffffffffffffffffffffffffffffff167f2da466a7b24304f47e87fa2e1e5a81b9831ce54fec19055ce277ca2f39ba42c482604051610e4d91906112a3565b60405180910390a250565b60075481565b610e6661116a565b73ffffffffffffffffffffffffffffffffffffffff16610e84610828565b73ffffffffffffffffffffffffffffffffffffffff1614610eda576040517f08c379a0000000000000000000000000000000000000000000000000000000008152600401610ed19061151a565b60405180910390fd5b5f5b600380549050811015610ff0575f60025f60038481548110610f0157610f00611799565b5b905f5260205f20015f9054906101000a900473ffffffffffffffffffffffffffffffffffffffff1673ffffffffffffffffffffffffffffffffffffffff1673ffffffffffffffffffffffffffffffffffffffff1681526020019081526020015f20819055505f60065f60038481548110610f7e57610f7d611799565b5b905f5260205f20015f9054906101000a900473ffffffffffffffffffffffffffffffffffffffff1673ffffffffffffffffffffffffffffffffffffffff1673ffffffffffffffffffffffffffffffffffffffff1681526020019081526020015f20819055508080600101915050610edc565b505f600781905550565b61100381610ab4565b61100c81610864565b50565b61101761116a565b73ffffffffffffffffffffffffffffffffffffffff16611035610828565b73ffffffffffffffffffffffffffffffffffffffff161461108b576040517f08c379a00000000000000000000000000000000000000000000000000000000081526004016110829061151a565b60405180910390fd5b5f73ffffffffffffffffffffffffffffffffffffffff168173ffffffffffffffffffffffffffffffffffffffff16036110f9576040517f08c379a00000000000000000000000000000000000000000000000000000000081526004016110f090611836565b60405180910390fd5b61110281611171565b50565b60058181548110611114575f80fd5b905f5260205f20015f915054906101000a900473ffffffffffffffffffffffffffffffffffffffff1681565b5f818361114d9190611881565b905092915050565b5f818361116291906118b4565b905092915050565b5f33905090565b5f805f9054906101000a900473ffffffffffffffffffffffffffffffffffffffff169050815f806101000a81548173ffffffffffffffffffffffffffffffffffffffff021916908373ffffffffffffffffffffffffffffffffffffffff1602179055508173ffffffffffffffffffffffffffffffffffffffff168173ffffffffffffffffffffffffffffffffffffffff167f8be0079c531659141344cd1fd0a4f28419497f9722a3daafe3b4186f6b6457e060405160405180910390a35050565b5f80fd5b5f819050919050565b61124881611236565b8114611252575f80fd5b50565b5f813590506112638161123f565b92915050565b5f6020828403121561127e5761127d611232565b5b5f61128b84828501611255565b91505092915050565b61129d81611236565b82525050565b5f6020820190506112b65f830184611294565b92915050565b5f73ffffffffffffffffffffffffffffffffffffffff82169050919050565b5f6112e5826112bc565b9050919050565b6112f5816112db565b81146112ff575f80fd5b50565b5f81359050611310816112ec565b92915050565b5f6020828403121561132b5761132a611232565b5b5f61133884828501611302565b91505092915050565b61134a816112db565b82525050565b5f6020820190506113635f830184611341565b92915050565b5f82825260208201905092915050565b7f4e6f7420656e6f75676820746f6b656e73207374616b656400000000000000005f82015250565b5f6113ad601883611369565b91506113b882611379565b602082019050919050565b5f6020820190508181035f8301526113da816113a1565b9050919050565b7f496e73756666696369656e7420746f6b656e2062616c616e63650000000000005f82015250565b5f611415601a83611369565b9150611420826113e1565b602082019050919050565b5f6020820190508181035f83015261144281611409565b9050919050565b5f60408201905061145c5f830185611341565b6114696020830184611294565b9392505050565b5f8115159050919050565b61148481611470565b811461148e575f80fd5b50565b5f8151905061149f8161147b565b92915050565b5f602082840312156114ba576114b9611232565b5b5f6114c784828501611491565b91505092915050565b7f4f776e61626c653a2063616c6c6572206973206e6f7420746865206f776e65725f82015250565b5f611504602083611369565b915061150f826114d0565b602082019050919050565b5f6020820190508181035f830152611531816114f8565b9050919050565b7f5374616b65206d757374206265206120706f73697469766520616d6f756e74205f8201527f67726561746572207468616e2030000000000000000000000000000000000000602082015250565b5f611592602e83611369565b915061159d82611538565b604082019050919050565b5f6020820190508181035f8301526115bf81611586565b9050919050565b7f4e6f7420656e6f75676820746f6b656e7320746f207374616b650000000000005f82015250565b5f6115fa601a83611369565b9150611605826115c6565b602082019050919050565b5f6020820190508181035f830152611627816115ee565b9050919050565b7f4465706f73697420616d6f756e742073686f756c64206e6f74206265203000005f82015250565b5f611662601e83611369565b915061166d8261162e565b602082019050919050565b5f6020820190508181035f83015261168f81611656565b9050919050565b5f6040820190506116a95f830185611341565b6116b66020830184611341565b9392505050565b5f815190506116cb8161123f565b92915050565b5f602082840312156116e6576116e5611232565b5b5f6116f3848285016116bd565b91505092915050565b7f496e73756666696369656e7420616c6c6f77616e6365000000000000000000005f82015250565b5f611730601683611369565b915061173b826116fc565b602082019050919050565b5f6020820190508181035f83015261175d81611724565b9050919050565b5f6060820190506117775f830186611341565b6117846020830185611341565b6117916040830184611294565b949350505050565b7f4e487b71000000000000000000000000000000000000000000000000000000005f52603260045260245ffd5b7f4f776e61626c653a206e6577206f776e657220697320746865207a65726f20615f8201527f6464726573730000000000000000000000000000000000000000000000000000602082015250565b5f611820602683611369565b915061182b826117c6565b604082019050919050565b5f6020820190508181035f83015261184d81611814565b9050919050565b7f4e487b71000000000000000000000000000000000000000000000000000000005f52601160045260245ffd5b5f61188b82611236565b915061189683611236565b92508282019050808211156118ae576118ad611854565b5b92915050565b5f6118be82611236565b91506118c983611236565b92508282039050818111156118e1576118e0611854565b5b9291505056fea2646970667358221220f493be37bd75ac36db01f5b2dd50d2d2dc9b40e589c45c732563b3d7c3e5a80d64736f6c63430008180033",
  "immutableReferences": {},
  "source": "// SPDX-License-Identifier: MIT\npragma solidity ^0.8.0;\npragma abicoder v2;\n\nimport \"./Wallet.sol\";\nimport \"../node_modules/@openzeppelin/contracts/utils/math/Math.sol\";\n\n\ncontract StakingPool is Wallet  {\n\n    using SafeMath for uint256;\n\n    event Staked(address indexed user, uint amount);\n    event UnStaked(address indexed user, uint256 amount);\n\n    address[] public stakers; // addresses that have active stakes\n    mapping (address => uint) public stakes;\n    uint public totalStakes;\n \n    constructor(address _rewardTokenAddress, address _lpTokenAddress) Wallet(_lpTokenAddress) {}\n\n\n    function depositAndStartStake(uint256 amount) public {\n        deposit(amount);\n        startStake(amount);\n    }\n\n\n    function endStakeAndWithdraw(uint amount) public {\n        endStake(amount);\n        withdraw(amount);\n    }\n\n\n    function startStake(uint amount) virtual public {\n        require(amount > 0, \"Stake must be a positive amount greater than 0\");\n        require(balances[msg.sender] >= amount, \"Not enough tokens to stake\");\n\n        // move tokens from lp token balance to the staked balance\n        balances[msg.sender] = balances[msg.sender].sub(amount);\n        stakes[msg.sender] = stakes[msg.sender].add(amount); \n       \n        totalStakes = totalStakes.add(amount);\n\n        emit Staked(msg.sender, amount);\n    }\n\n\n    function endStake(uint amount) virtual public {\n        require(stakes[msg.sender] >= amount, \"Not enough tokens staked\");\n\n        // return lp tokens to lp token balance\n        balances[msg.sender] = balances[msg.sender].add(amount);\n        stakes[msg.sender] = stakes[msg.sender].sub(amount); \n\n        totalStakes = totalStakes.sub(amount);\n\n        emit UnStaked(msg.sender, amount);\n    }\n\n\n    function getStakedBalance() public view returns (uint) {\n        return stakes[msg.sender];\n    }\n\n\n    function reset() public virtual onlyOwner {\n        // reset user balances and stakes\n        for (uint i=0; i < usersArray.length; i++) {\n            balances[usersArray[i]] = 0;\n            stakes[usersArray[i]] = 0;\n        }\n        totalStakes = 0;\n    }\n}",
  "sourcePath": "C:\\Users\\PC\\Desktop\\repos\\perfect10\\staking\\contracts\\StakingPool.sol",
  "compiler": {
    "name": "solc",
    "version": "0.8.24+commit.e11b9ed9.Emscripten.clang"
  },
  "schemaVersion": "3.4.16",
  "updatedAt": "2024-02-19T00:39:29.293Z",
  "networkType": "ethereum",
  "devdoc": {
    "kind": "dev",
    "methods": {
      "owner()": {
        "details": "Returns the address of the current owner."
      },
      "renounceOwnership()": {
        "details": "Leaves the contract without owner. It will not be possible to call `onlyOwner` functions anymore. Can only be called by the current owner. NOTE: Renouncing ownership will leave the contract without an owner, thereby removing any functionality that is only available to the owner."
      },
      "transferOwnership(address)": {
        "details": "Transfers ownership of the contract to a new account (`newOwner`). Can only be called by the current owner."
      }
    },
    "version": 1
  },
  "userdoc": {
    "kind": "user",
    "methods": {},
    "version": 1
  }
}