{
  "contractName": "StakingRewardPool",
  "abi": [
    {
      "inputs": [
        {
          "internalType": "address",
          "name": "_rewardTokenAddress",
          "type": "address"
        },
        {
          "internalType": "address",
          "name": "_lpTokenAddress",
          "type": "address"
        }
      ],
      "stateMutability": "nonpayable",
      "type": "constructor"
    },
    {
      "anonymous": false,
      "inputs": [
        {
          "indexed": true,
          "internalType": "address",
          "name": "user",
          "type": "address"
        },
        {
          "indexed": false,
          "internalType": "uint256",
          "name": "amount",
          "type": "uint256"
        }
      ],
      "name": "Deposited",
      "type": "event"
    },
    {
      "anonymous": false,
      "inputs": [
        {
          "indexed": true,
          "internalType": "address",
          "name": "previousOwner",
          "type": "address"
        },
        {
          "indexed": true,
          "internalType": "address",
          "name": "newOwner",
          "type": "address"
        }
      ],
      "name": "OwnershipTransferred",
      "type": "event"
    },
    {
      "anonymous": false,
      "inputs": [
        {
          "indexed": true,
          "internalType": "address",
          "name": "user",
          "type": "address"
        },
        {
          "indexed": false,
          "internalType": "uint256",
          "name": "reward",
          "type": "uint256"
        }
      ],
      "name": "RewardPaid",
      "type": "event"
    },
    {
      "anonymous": false,
      "inputs": [
        {
          "indexed": true,
          "internalType": "address",
          "name": "user",
          "type": "address"
        },
        {
          "indexed": false,
          "internalType": "uint256",
          "name": "amount",
          "type": "uint256"
        }
      ],
      "name": "Staked",
      "type": "event"
    },
    {
      "anonymous": false,
      "inputs": [
        {
          "indexed": true,
          "internalType": "address",
          "name": "user",
          "type": "address"
        },
        {
          "indexed": false,
          "internalType": "uint256",
          "name": "amount",
          "type": "uint256"
        }
      ],
      "name": "UnStaked",
      "type": "event"
    },
    {
      "anonymous": false,
      "inputs": [
        {
          "indexed": true,
          "internalType": "address",
          "name": "user",
          "type": "address"
        },
        {
          "indexed": false,
          "internalType": "uint256",
          "name": "amount",
          "type": "uint256"
        }
      ],
      "name": "Withdrawn",
      "type": "event"
    },
    {
      "inputs": [
        {
          "internalType": "address",
          "name": "",
          "type": "address"
        }
      ],
      "name": "balances",
      "outputs": [
        {
          "internalType": "uint256",
          "name": "",
          "type": "uint256"
        }
      ],
      "stateMutability": "view",
      "type": "function",
      "constant": true
    },
    {
      "inputs": [
        {
          "internalType": "uint256",
          "name": "amount",
          "type": "uint256"
        }
      ],
      "name": "deposit",
      "outputs": [],
      "stateMutability": "nonpayable",
      "type": "function"
    },
    {
      "inputs": [
        {
          "internalType": "uint256",
          "name": "amount",
          "type": "uint256"
        }
      ],
      "name": "depositAndStartStake",
      "outputs": [],
      "stateMutability": "nonpayable",
      "type": "function"
    },
    {
      "inputs": [
        {
          "internalType": "uint256",
          "name": "amount",
          "type": "uint256"
        }
      ],
      "name": "endStakeAndWithdraw",
      "outputs": [],
      "stateMutability": "nonpayable",
      "type": "function"
    },
    {
      "inputs": [],
      "name": "getBalance",
      "outputs": [
        {
          "internalType": "uint256",
          "name": "",
          "type": "uint256"
        }
      ],
      "stateMutability": "view",
      "type": "function",
      "constant": true
    },
    {
      "inputs": [],
      "name": "getStakedBalance",
      "outputs": [
        {
          "internalType": "uint256",
          "name": "",
          "type": "uint256"
        }
      ],
      "stateMutability": "view",
      "type": "function",
      "constant": true
    },
    {
      "inputs": [],
      "name": "owner",
      "outputs": [
        {
          "internalType": "address",
          "name": "",
          "type": "address"
        }
      ],
      "stateMutability": "view",
      "type": "function",
      "constant": true
    },
    {
      "inputs": [],
      "name": "renounceOwnership",
      "outputs": [],
      "stateMutability": "nonpayable",
      "type": "function"
    },
    {
      "inputs": [
        {
          "internalType": "uint256",
          "name": "",
          "type": "uint256"
        }
      ],
      "name": "rewardPeriods",
      "outputs": [
        {
          "internalType": "uint256",
          "name": "id",
          "type": "uint256"
        },
        {
          "internalType": "uint256",
          "name": "reward",
          "type": "uint256"
        },
        {
          "internalType": "uint256",
          "name": "from",
          "type": "uint256"
        },
        {
          "internalType": "uint256",
          "name": "to",
          "type": "uint256"
        },
        {
          "internalType": "uint256",
          "name": "lastUpdated",
          "type": "uint256"
        },
        {
          "internalType": "uint256",
          "name": "totalStaked",
          "type": "uint256"
        },
        {
          "internalType": "uint256",
          "name": "rewardPerTokenStaked",
          "type": "uint256"
        },
        {
          "internalType": "uint256",
          "name": "totalRewardsPaid",
          "type": "uint256"
        }
      ],
      "stateMutability": "view",
      "type": "function",
      "constant": true
    },
    {
      "inputs": [
        {
          "internalType": "uint256",
          "name": "",
          "type": "uint256"
        }
      ],
      "name": "stakers",
      "outputs": [
        {
          "internalType": "address",
          "name": "",
          "type": "address"
        }
      ],
      "stateMutability": "view",
      "type": "function",
      "constant": true
    },
    {
      "inputs": [
        {
          "internalType": "address",
          "name": "",
          "type": "address"
        }
      ],
      "name": "stakes",
      "outputs": [
        {
          "internalType": "uint256",
          "name": "",
          "type": "uint256"
        }
      ],
      "stateMutability": "view",
      "type": "function",
      "constant": true
    },
    {
      "inputs": [],
      "name": "totalStakes",
      "outputs": [
        {
          "internalType": "uint256",
          "name": "",
          "type": "uint256"
        }
      ],
      "stateMutability": "view",
      "type": "function",
      "constant": true
    },
    {
      "inputs": [
        {
          "internalType": "address",
          "name": "newOwner",
          "type": "address"
        }
      ],
      "name": "transferOwnership",
      "outputs": [],
      "stateMutability": "nonpayable",
      "type": "function"
    },
    {
      "inputs": [
        {
          "internalType": "uint256",
          "name": "amount",
          "type": "uint256"
        }
      ],
      "name": "withdraw",
      "outputs": [],
      "stateMutability": "nonpayable",
      "type": "function"
    },
    {
      "inputs": [
        {
          "internalType": "uint256",
          "name": "reward",
          "type": "uint256"
        },
        {
          "internalType": "uint256",
          "name": "from",
          "type": "uint256"
        },
        {
          "internalType": "uint256",
          "name": "to",
          "type": "uint256"
        }
      ],
      "name": "newRewardPeriod",
      "outputs": [],
      "stateMutability": "nonpayable",
      "type": "function"
    },
    {
      "inputs": [],
      "name": "getRewardPeriodsCount",
      "outputs": [
        {
          "internalType": "uint256",
          "name": "",
          "type": "uint256"
        }
      ],
      "stateMutability": "view",
      "type": "function",
      "constant": true
    },
    {
      "inputs": [
        {
          "internalType": "uint256",
          "name": "index",
          "type": "uint256"
        }
      ],
      "name": "deleteRewardPeriod",
      "outputs": [],
      "stateMutability": "nonpayable",
      "type": "function"
    },
    {
      "inputs": [],
      "name": "rewardBalance",
      "outputs": [
        {
          "internalType": "uint256",
          "name": "",
          "type": "uint256"
        }
      ],
      "stateMutability": "view",
      "type": "function",
      "constant": true
    },
    {
      "inputs": [
        {
          "internalType": "uint256",
          "name": "amount",
          "type": "uint256"
        }
      ],
      "name": "startStake",
      "outputs": [],
      "stateMutability": "nonpayable",
      "type": "function"
    },
    {
      "inputs": [
        {
          "internalType": "uint256",
          "name": "amount",
          "type": "uint256"
        }
      ],
      "name": "endStake",
      "outputs": [],
      "stateMutability": "nonpayable",
      "type": "function"
    },
    {
      "inputs": [],
      "name": "claimableReward",
      "outputs": [
        {
          "internalType": "uint256",
          "name": "",
          "type": "uint256"
        }
      ],
      "stateMutability": "view",
      "type": "function",
      "constant": true
    },
    {
      "inputs": [],
      "name": "claimReward",
      "outputs": [],
      "stateMutability": "nonpayable",
      "type": "function"
    },
    {
      "inputs": [],
      "name": "getCurrentRewardPeriodId",
      "outputs": [
        {
          "internalType": "uint256",
          "name": "",
          "type": "uint256"
        }
      ],
      "stateMutability": "view",
      "type": "function",
      "constant": true
    },
    {
      "inputs": [],
      "name": "getRewardsStats",
      "outputs": [
        {
          "components": [
            {
              "internalType": "uint256",
              "name": "claimableRewards",
              "type": "uint256"
            },
            {
              "internalType": "uint256",
              "name": "rewardsPaid",
              "type": "uint256"
            },
            {
              "internalType": "uint256",
              "name": "rewardRate",
              "type": "uint256"
            },
            {
              "internalType": "uint256",
              "name": "totalRewardsPaid",
              "type": "uint256"
            }
          ],
          "internalType": "struct StakingRewardPool.RewardsStats",
          "name": "",
          "type": "tuple"
        }
      ],
      "stateMutability": "view",
      "type": "function",
      "constant": true
    },
    {
      "inputs": [],
      "name": "reset",
      "outputs": [],
      "stateMutability": "nonpayable",
      "type": "function"
    }
  ],
  "bytecode": "0x60806040525f600a5534801562000014575f80fd5b50604051620035a0380380620035a083398181016040528101906200003a919062000215565b8181806200005d62000051620000e860201b60201c565b620000ef60201b60201c565b8060015f6101000a81548173ffffffffffffffffffffffffffffffffffffffff021916908373ffffffffffffffffffffffffffffffffffffffff1602179055505050508160085f6101000a81548173ffffffffffffffffffffffffffffffffffffffff021916908373ffffffffffffffffffffffffffffffffffffffff16021790555050506200025a565b5f33905090565b5f805f9054906101000a900473ffffffffffffffffffffffffffffffffffffffff169050815f806101000a81548173ffffffffffffffffffffffffffffffffffffffff021916908373ffffffffffffffffffffffffffffffffffffffff1602179055508173ffffffffffffffffffffffffffffffffffffffff168173ffffffffffffffffffffffffffffffffffffffff167f8be0079c531659141344cd1fd0a4f28419497f9722a3daafe3b4186f6b6457e060405160405180910390a35050565b5f80fd5b5f73ffffffffffffffffffffffffffffffffffffffff82169050919050565b5f620001df82620001b4565b9050919050565b620001f181620001d3565b8114620001fc575f80fd5b50565b5f815190506200020f81620001e6565b92915050565b5f80604083850312156200022e576200022d620001b0565b5b5f6200023d85828601620001ff565b92505060206200025085828601620001ff565b9150509250929050565b61333880620002685f395ff3fe608060405234801561000f575f80fd5b5060043610610171575f3560e01c80638da5cb5b116100dc578063bf9befb111610095578063e7181edc1161006f578063e7181edc146103dc578063f2fde38b146103fa578063fad0138d14610416578063fd5e6dd11461043457610171565b8063bf9befb114610398578063d826f88f146103b6578063d9c5fbed146103c057610171565b80638da5cb5b146102fe578063aa5c3ab41461031c578063aaf636401461033a578063b51bd40f14610356578063b6b55f2514610372578063b88a802f1461038e57610171565b80632e1a7d4d1161012e5780632e1a7d4d1461024957806333b365d6146102655780635865b91114610281578063715018a61461029f57806376965867146102a95780638252097d146102c757610171565b80630cbe28d61461017557806312065fe01461019157806316934fc4146101af57806318e01ec5146101df57806327e235e3146101fb5780632ad7b6a91461022b575b5f80fd5b61018f600480360381019061018a91906127b5565b610464565b005b6101996104db565b6040516101a691906127ef565b60405180910390f35b6101c960048036038101906101c49190612862565b61051f565b6040516101d691906127ef565b60405180910390f35b6101f960048036038101906101f491906127b5565b610534565b005b61021560048036038101906102109190612862565b61072f565b60405161022291906127ef565b60405180910390f35b610233610744565b60405161024091906128ef565b60405180910390f35b610263600480360381019061025e91906127b5565b6108be565b005b61027f600480360381019061027a9190612908565b610abd565b005b610289610d2a565b60405161029691906127ef565b60405180910390f35b6102a7610e1e565b005b6102b1610ea5565b6040516102be91906127ef565b60405180910390f35b6102e160048036038101906102dc91906127b5565b610ee9565b6040516102f5989796959493929190612958565b60405180910390f35b610306610f3c565b60405161031391906129e3565b60405180910390f35b610324610f63565b60405161033191906127ef565b60405180910390f35b610354600480360381019061034f91906127b5565b611002565b005b610370600480360381019061036b91906127b5565b611017565b005b61038c600480360381019061038791906127b5565b6110c8565b005b61039661146c565b005b6103a061147e565b6040516103ad91906127ef565b60405180910390f35b6103be611484565b005b6103da60048036038101906103d591906127b5565b6116dd565b005b6103e46116f2565b6040516103f191906127ef565b60405180910390f35b610414600480360381019061040f9190612862565b61183f565b005b61041e611935565b60405161042b91906127ef565b60405180910390f35b61044e600480360381019061044991906127b5565b61193e565b60405161045b91906129e3565b60405180910390f35b61046c611979565b61047581611b2f565b5f61047e610d2a565b90505f60096001836104909190612a29565b815481106104a1576104a0612a5c565b5b905f5260205f20906008020190506104c6838260050154611d3d90919063ffffffff16565b81600501819055506104d6611d52565b505050565b5f60025f3373ffffffffffffffffffffffffffffffffffffffff1673ffffffffffffffffffffffffffffffffffffffff1681526020019081526020015f2054905090565b6006602052805f5260405f205f915090505481565b61053c611e14565b73ffffffffffffffffffffffffffffffffffffffff1661055a610f3c565b73ffffffffffffffffffffffffffffffffffffffff16146105b0576040517f08c379a00000000000000000000000000000000000000000000000000000000081526004016105a790612ae3565b60405180910390fd5b80600980549050116105f7576040517f08c379a00000000000000000000000000000000000000000000000000000000081526004016105ee90612b4b565b60405180910390fd5b5f8190505b600160098054905061060e9190612a29565b8110156106bf5760096001826106249190612b69565b8154811061063557610634612a5c565b5b905f5260205f2090600802016009828154811061065557610654612a5c565b5b905f5260205f2090600802015f820154815f01556001820154816001015560028201548160020155600382015481600301556004820154816004015560058201548160050155600682015481600601556007820154816007015590505080806001019150506105fc565b5060098054806106d2576106d1612b9c565b5b600190038181905f5260205f2090600802015f8082015f9055600182015f9055600282015f9055600382015f9055600482015f9055600582015f9055600682015f9055600782015f905550509055600980549050600a8190555050565b6002602052805f5260405f205f915090505481565b61074c61275a565b5f600b5f3373ffffffffffffffffffffffffffffffffffffffff1673ffffffffffffffffffffffffffffffffffffffff1681526020019081526020015f206040518060600160405290815f82015481526020016001820154815260200160028201548152505090505f60405180608001604052805f81526020015f81526020015f81526020015f81525090506107e06116f2565b815f01818152505081604001518160200181815250505f6107ff610d2a565b90505f8111156108b5575f60096001836108199190612a29565b8154811061082a57610829612a5c565b5b905f5260205f209060080201604051806101000160405290815f8201548152602001600182015481526020016002820154815260200160038201548152602001600482015481526020016005820154815260200160068201548152602001600782015481525050905061089c81611e1b565b8360400181815250508060e00151836060018181525050505b81935050505090565b8060025f3373ffffffffffffffffffffffffffffffffffffffff1673ffffffffffffffffffffffffffffffffffffffff1681526020019081526020015f2054101561093e576040517f08c379a000000000000000000000000000000000000000000000000000000000815260040161093590612c13565b60405180910390fd5b61098e8160025f3373ffffffffffffffffffffffffffffffffffffffff1673ffffffffffffffffffffffffffffffffffffffff1681526020019081526020015f2054611d3d90919063ffffffff16565b60025f3373ffffffffffffffffffffffffffffffffffffffff1673ffffffffffffffffffffffffffffffffffffffff1681526020019081526020015f208190555060015f9054906101000a900473ffffffffffffffffffffffffffffffffffffffff1673ffffffffffffffffffffffffffffffffffffffff1663a9059cbb33836040518363ffffffff1660e01b8152600401610a2b929190612c31565b6020604051808303815f875af1158015610a47573d5f803e3d5ffd5b505050506040513d601f19601f82011682018060405250810190610a6b9190612c8d565b503373ffffffffffffffffffffffffffffffffffffffff167f7084f5476618d8e60b11ef0d7d3f06914655adb8793e28ff7f018d4c76d505d582604051610ab291906127ef565b60405180910390a250565b610ac5611e14565b73ffffffffffffffffffffffffffffffffffffffff16610ae3610f3c565b73ffffffffffffffffffffffffffffffffffffffff1614610b39576040517f08c379a0000000000000000000000000000000000000000000000000000000008152600401610b3090612ae3565b60405180910390fd5b5f8311610b7b576040517f08c379a0000000000000000000000000000000000000000000000000000000008152600401610b7290612d02565b60405180910390fd5b8181118015610b8957504281115b610bc8576040517f08c379a0000000000000000000000000000000000000000000000000000000008152600401610bbf90612d6a565b60405180910390fd5b5f6009805490501480610c0e575060096001600980549050610bea9190612a29565b81548110610bfb57610bfa612a5c565b5b905f5260205f2090600802016003015482115b610c4d576040517f08c379a0000000000000000000000000000000000000000000000000000000008152600401610c4490612dd2565b60405180910390fd5b60096040518061010001604052806001600980549050610c6d9190612b69565b81526020018581526020018481526020018381526020014281526020015f81526020015f81526020015f815250908060018154018082558091505060019003905f5260205f2090600802015f909190919091505f820151815f01556020820151816001015560408201518160020155606082015181600301556080820151816004015560a0820151816005015560c0820151816006015560e082015181600701555050600980549050600a81905550610d2583611e59565b505050565b5f80600a5403610d3c575f9050610e1b565b5f60098054905090505b5f811115610e16575f6009600183610d5e9190612a29565b81548110610d6f57610d6e612a5c565b5b905f5260205f209060080201604051806101000160405290815f8201548152602001600182015481526020016002820154815260200160038201548152602001600482015481526020016005820154815260200160068201548152602001600782015481525050905042816040015111158015610df0575042816060015110155b15610e0257805f015192505050610e1b565b508080610e0e90612df0565b915050610d46565b505f90505b90565b610e26611e14565b73ffffffffffffffffffffffffffffffffffffffff16610e44610f3c565b73ffffffffffffffffffffffffffffffffffffffff1614610e9a576040517f08c379a0000000000000000000000000000000000000000000000000000000008152600401610e9190612ae3565b60405180910390fd5b610ea35f611f77565b565b5f60065f3373ffffffffffffffffffffffffffffffffffffffff1673ffffffffffffffffffffffffffffffffffffffff1681526020019081526020015f2054905090565b60098181548110610ef8575f80fd5b905f5260205f2090600802015f91509050805f0154908060010154908060020154908060030154908060040154908060050154908060060154908060070154905088565b5f805f9054906101000a900473ffffffffffffffffffffffffffffffffffffffff16905090565b5f60085f9054906101000a900473ffffffffffffffffffffffffffffffffffffffff1673ffffffffffffffffffffffffffffffffffffffff166370a08231306040518263ffffffff1660e01b8152600401610fbe91906129e3565b602060405180830381865afa158015610fd9573d5f803e3d5ffd5b505050506040513d601f19601f82011682018060405250810190610ffd9190612e2b565b905090565b61100b81610464565b611014816108be565b50565b5f611020610d2a565b90505f8111611064576040517f08c379a000000000000000000000000000000000000000000000000000000000815260040161105b90612ea0565b60405180910390fd5b61106c611979565b61107582612038565b5f60096001836110859190612a29565b8154811061109657611095612a5c565b5b905f5260205f20906008020190506110bb83826005015461228890919063ffffffff16565b8160050181905550505050565b5f811161110a576040517f08c379a000000000000000000000000000000000000000000000000000000000815260040161110190612f08565b60405180910390fd5b8060015f9054906101000a900473ffffffffffffffffffffffffffffffffffffffff1673ffffffffffffffffffffffffffffffffffffffff1663dd62ed3e33306040518363ffffffff1660e01b8152600401611167929190612f26565b602060405180830381865afa158015611182573d5f803e3d5ffd5b505050506040513d601f19601f820116820180604052508101906111a69190612e2b565b10156111e7576040517f08c379a00000000000000000000000000000000000000000000000000000000081526004016111de90612f97565b60405180910390fd5b6112378160025f3373ffffffffffffffffffffffffffffffffffffffff1673ffffffffffffffffffffffffffffffffffffffff1681526020019081526020015f205461228890919063ffffffff16565b60025f3373ffffffffffffffffffffffffffffffffffffffff1673ffffffffffffffffffffffffffffffffffffffff1681526020019081526020015f208190555060045f3373ffffffffffffffffffffffffffffffffffffffff1673ffffffffffffffffffffffffffffffffffffffff1681526020019081526020015f205f9054906101000a900460ff1661137c57600160045f3373ffffffffffffffffffffffffffffffffffffffff1673ffffffffffffffffffffffffffffffffffffffff1681526020019081526020015f205f6101000a81548160ff021916908315150217905550600333908060018154018082558091505060019003905f5260205f20015f9091909190916101000a81548173ffffffffffffffffffffffffffffffffffffffff021916908373ffffffffffffffffffffffffffffffffffffffff1602179055505b60015f9054906101000a900473ffffffffffffffffffffffffffffffffffffffff1673ffffffffffffffffffffffffffffffffffffffff166323b872dd3330846040518463ffffffff1660e01b81526004016113da93929190612fb5565b6020604051808303815f875af11580156113f6573d5f803e3d5ffd5b505050506040513d601f19601f8201168201806040525081019061141a9190612c8d565b503373ffffffffffffffffffffffffffffffffffffffff167f2da466a7b24304f47e87fa2e1e5a81b9831ce54fec19055ce277ca2f39ba42c48260405161146191906127ef565b60405180910390a250565b611474611979565b61147c611d52565b565b60075481565b61148c611e14565b73ffffffffffffffffffffffffffffffffffffffff166114aa610f3c565b73ffffffffffffffffffffffffffffffffffffffff1614611500576040517f08c379a00000000000000000000000000000000000000000000000000000000081526004016114f790612ae3565b60405180910390fd5b5f5b600980549050811015611576576009818154811061152357611522612a5c565b5b905f5260205f2090600802015f8082015f9055600182015f9055600282015f9055600382015f9055600482015f9055600582015f9055600682015f9055600782015f905550508080600101915050611502565b505f600a819055505f5b60038054905081101561162957600b5f600383815481106115a4576115a3612a5c565b5b905f5260205f20015f9054906101000a900473ffffffffffffffffffffffffffffffffffffffff1673ffffffffffffffffffffffffffffffffffffffff1673ffffffffffffffffffffffffffffffffffffffff1681526020019081526020015f205f8082015f9055600182015f9055600282015f905550508080600101915050611580565b505f611633610f63565b905060085f9054906101000a900473ffffffffffffffffffffffffffffffffffffffff1673ffffffffffffffffffffffffffffffffffffffff1663a9059cbb33836040518363ffffffff1660e01b8152600401611691929190612c31565b6020604051808303815f875af11580156116ad573d5f803e3d5ffd5b505050506040513d601f19601f820116820180604052508101906116d19190612c8d565b506116da61229d565b50565b6116e6816110c8565b6116ef81611017565b50565b5f806116fc610d2a565b90505f810361170e575f91505061183c565b5f600960018361171e9190612a29565b8154811061172f5761172e612a5c565b5b905f5260205f209060080201604051806101000160405290815f820154815260200160018201548152602001600282015481526020016003820154815260200160048201548152602001600582015481526020016006820154815260200160078201548152505090505f6117a282612439565b90505f6117ae826124db565b90505f600b5f3373ffffffffffffffffffffffffffffffffffffffff1673ffffffffffffffffffffffffffffffffffffffff1681526020019081526020015f206040518060600160405290815f82015481526020016001820154815260200160028201548152505090505f81602001519050611833838261228890919063ffffffff16565b96505050505050505b90565b611847611e14565b73ffffffffffffffffffffffffffffffffffffffff16611865610f3c565b73ffffffffffffffffffffffffffffffffffffffff16146118bb576040517f08c379a00000000000000000000000000000000000000000000000000000000081526004016118b290612ae3565b60405180910390fd5b5f73ffffffffffffffffffffffffffffffffffffffff168173ffffffffffffffffffffffffffffffffffffffff1603611929576040517f08c379a00000000000000000000000000000000000000000000000000000000081526004016119209061305a565b60405180910390fd5b61193281611f77565b50565b5f600a54905090565b6005818154811061194d575f80fd5b905f5260205f20015f915054906101000a900473ffffffffffffffffffffffffffffffffffffffff1681565b5f611982610d2a565b90505f81116119c6576040517f08c379a00000000000000000000000000000000000000000000000000000000081526004016119bd90612ea0565b60405180910390fd5b5f60096001836119d69190612a29565b815481106119e7576119e6612a5c565b5b905f5260205f20906008020190505f611a5a82604051806101000160405290815f8201548152602001600182015481526020016002820154815260200160038201548152602001600482015481526020016005820154815260200160068201548152602001600782015481525050612439565b90505f611a66826124db565b90505f600b5f3373ffffffffffffffffffffffffffffffffffffffff1673ffffffffffffffffffffffffffffffffffffffff1681526020019081526020015f209050611abf82826001015461228890919063ffffffff16565b816001018190555082815f01819055508360060154831015611b16576040517f08c379a0000000000000000000000000000000000000000000000000000000008152600401611b0d906130e8565b60405180910390fd5b8284600601819055504284600401819055505050505050565b8060065f3373ffffffffffffffffffffffffffffffffffffffff1673ffffffffffffffffffffffffffffffffffffffff1681526020019081526020015f20541015611baf576040517f08c379a0000000000000000000000000000000000000000000000000000000008152600401611ba690613150565b60405180910390fd5b611bff8160025f3373ffffffffffffffffffffffffffffffffffffffff1673ffffffffffffffffffffffffffffffffffffffff1681526020019081526020015f205461228890919063ffffffff16565b60025f3373ffffffffffffffffffffffffffffffffffffffff1673ffffffffffffffffffffffffffffffffffffffff1681526020019081526020015f2081905550611c908160065f3373ffffffffffffffffffffffffffffffffffffffff1673ffffffffffffffffffffffffffffffffffffffff1681526020019081526020015f2054611d3d90919063ffffffff16565b60065f3373ffffffffffffffffffffffffffffffffffffffff1673ffffffffffffffffffffffffffffffffffffffff1681526020019081526020015f2081905550611ce681600754611d3d90919063ffffffff16565b6007819055503373ffffffffffffffffffffffffffffffffffffffff167f79d3df6837cc49ff0e09fd3258e6e45594e0703445bb06825e9d75156eaee8f082604051611d3291906127ef565b60405180910390a250565b5f8183611d4a9190612a29565b905092915050565b5f600b5f3373ffffffffffffffffffffffffffffffffffffffff1673ffffffffffffffffffffffffffffffffffffffff1681526020019081526020015f2090505f816001015490505f8114611e10575f82600101819055505f611db3610d2a565b90505f6009600183611dc59190612a29565b81548110611dd657611dd5612a5c565b5b905f5260205f2090600802019050611dfb83826007015461228890919063ffffffff16565b8160070181905550611e0d33846125e1565b50505b5050565b5f33905090565b5f80611e3883604001518460600151611d3d90919063ffffffff16565b9050611e5181846020015161273090919063ffffffff16565b915050919050565b611e61611e14565b73ffffffffffffffffffffffffffffffffffffffff16611e7f610f3c565b73ffffffffffffffffffffffffffffffffffffffff1614611ed5576040517f08c379a0000000000000000000000000000000000000000000000000000000008152600401611ecc90612ae3565b60405180910390fd5b60085f9054906101000a900473ffffffffffffffffffffffffffffffffffffffff1673ffffffffffffffffffffffffffffffffffffffff166323b872dd3330846040518463ffffffff1660e01b8152600401611f3393929190612fb5565b6020604051808303815f875af1158015611f4f573d5f803e3d5ffd5b505050506040513d601f19601f82011682018060405250810190611f739190612c8d565b5050565b5f805f9054906101000a900473ffffffffffffffffffffffffffffffffffffffff169050815f806101000a81548173ffffffffffffffffffffffffffffffffffffffff021916908373ffffffffffffffffffffffffffffffffffffffff1602179055508173ffffffffffffffffffffffffffffffffffffffff168173ffffffffffffffffffffffffffffffffffffffff167f8be0079c531659141344cd1fd0a4f28419497f9722a3daafe3b4186f6b6457e060405160405180910390a35050565b5f811161207a576040517f08c379a0000000000000000000000000000000000000000000000000000000008152600401612071906131de565b60405180910390fd5b8060025f3373ffffffffffffffffffffffffffffffffffffffff1673ffffffffffffffffffffffffffffffffffffffff1681526020019081526020015f205410156120fa576040517f08c379a00000000000000000000000000000000000000000000000000000000081526004016120f190613246565b60405180910390fd5b61214a8160025f3373ffffffffffffffffffffffffffffffffffffffff1673ffffffffffffffffffffffffffffffffffffffff1681526020019081526020015f2054611d3d90919063ffffffff16565b60025f3373ffffffffffffffffffffffffffffffffffffffff1673ffffffffffffffffffffffffffffffffffffffff1681526020019081526020015f20819055506121db8160065f3373ffffffffffffffffffffffffffffffffffffffff1673ffffffffffffffffffffffffffffffffffffffff1681526020019081526020015f205461228890919063ffffffff16565b60065f3373ffffffffffffffffffffffffffffffffffffffff1673ffffffffffffffffffffffffffffffffffffffff1681526020019081526020015f20819055506122318160075461228890919063ffffffff16565b6007819055503373ffffffffffffffffffffffffffffffffffffffff167f9e71bc8eea02a63969f509818f2dafb9254532904319f9dbda79b67bd34a5f3d8260405161227d91906127ef565b60405180910390a250565b5f81836122959190612b69565b905092915050565b6122a5611e14565b73ffffffffffffffffffffffffffffffffffffffff166122c3610f3c565b73ffffffffffffffffffffffffffffffffffffffff1614612319576040517f08c379a000000000000000000000000000000000000000000000000000000000815260040161231090612ae3565b60405180910390fd5b5f5b60038054905081101561242f575f60025f600384815481106123405761233f612a5c565b5b905f5260205f20015f9054906101000a900473ffffffffffffffffffffffffffffffffffffffff1673ffffffffffffffffffffffffffffffffffffffff1673ffffffffffffffffffffffffffffffffffffffff1681526020019081526020015f20819055505f60065f600384815481106123bd576123bc612a5c565b5b905f5260205f20015f9054906101000a900473ffffffffffffffffffffffffffffffffffffffff1673ffffffffffffffffffffffffffffffffffffffff1673ffffffffffffffffffffffffffffffffffffffff1681526020019081526020015f2081905550808060010191505061231b565b505f600781905550565b5f8061244483611e1b565b90505f61245e846080015142611d3d90919063ffffffff16565b90505f612474838361274590919063ffffffff16565b90505f8560c0015190505f8660a00151146124cf576124cc6124b98760a001516124ab633b9aca008661274590919063ffffffff16565b61273090919063ffffffff16565b8760c0015161228890919063ffffffff16565b90505b80945050505050919050565b5f8082036124eb575f90506125dc565b5f60065f3373ffffffffffffffffffffffffffffffffffffffff1673ffffffffffffffffffffffffffffffffffffffff1681526020019081526020015f205490505f600b5f3373ffffffffffffffffffffffffffffffffffffffff1673ffffffffffffffffffffffffffffffffffffffff1681526020019081526020015f206040518060600160405290815f82015481526020016001820154815260200160028201548152505090505f6125d3633b9aca006125c56125b6855f015189611d3d90919063ffffffff16565b8661274590919063ffffffff16565b61273090919063ffffffff16565b90508093505050505b919050565b5f600b5f3373ffffffffffffffffffffffffffffffffffffffff1673ffffffffffffffffffffffffffffffffffffffff1681526020019081526020015f20905061263882826002015461228890919063ffffffff16565b816002018190555060085f9054906101000a900473ffffffffffffffffffffffffffffffffffffffff1673ffffffffffffffffffffffffffffffffffffffff1663a9059cbb84846040518363ffffffff1660e01b815260040161269c929190612c31565b6020604051808303815f875af11580156126b8573d5f803e3d5ffd5b505050506040513d601f19601f820116820180604052508101906126dc9190612c8d565b508273ffffffffffffffffffffffffffffffffffffffff167fe2403640ba68fed3a2f88b7557551d1993f84b99bb10ff833f0cf8db0c5e04868360405161272391906127ef565b60405180910390a2505050565b5f818361273d9190613291565b905092915050565b5f818361275291906132c1565b905092915050565b60405180608001604052805f81526020015f81526020015f81526020015f81525090565b5f80fd5b5f819050919050565b61279481612782565b811461279e575f80fd5b50565b5f813590506127af8161278b565b92915050565b5f602082840312156127ca576127c961277e565b5b5f6127d7848285016127a1565b91505092915050565b6127e981612782565b82525050565b5f6020820190506128025f8301846127e0565b92915050565b5f73ffffffffffffffffffffffffffffffffffffffff82169050919050565b5f61283182612808565b9050919050565b61284181612827565b811461284b575f80fd5b50565b5f8135905061285c81612838565b92915050565b5f602082840312156128775761287661277e565b5b5f6128848482850161284e565b91505092915050565b61289681612782565b82525050565b608082015f8201516128b05f85018261288d565b5060208201516128c3602085018261288d565b5060408201516128d6604085018261288d565b5060608201516128e9606085018261288d565b50505050565b5f6080820190506129025f83018461289c565b92915050565b5f805f6060848603121561291f5761291e61277e565b5b5f61292c868287016127a1565b935050602061293d868287016127a1565b925050604061294e868287016127a1565b9150509250925092565b5f6101008201905061296c5f83018b6127e0565b612979602083018a6127e0565b61298660408301896127e0565b61299360608301886127e0565b6129a060808301876127e0565b6129ad60a08301866127e0565b6129ba60c08301856127e0565b6129c760e08301846127e0565b9998505050505050505050565b6129dd81612827565b82525050565b5f6020820190506129f65f8301846129d4565b92915050565b7f4e487b71000000000000000000000000000000000000000000000000000000005f52601160045260245ffd5b5f612a3382612782565b9150612a3e83612782565b9250828203905081811115612a5657612a556129fc565b5b92915050565b7f4e487b71000000000000000000000000000000000000000000000000000000005f52603260045260245ffd5b5f82825260208201905092915050565b7f4f776e61626c653a2063616c6c6572206973206e6f7420746865206f776e65725f82015250565b5f612acd602083612a89565b9150612ad882612a99565b602082019050919050565b5f6020820190508181035f830152612afa81612ac1565b9050919050565b7f496e76616c69642072657761726420706861736520696e6465780000000000005f82015250565b5f612b35601a83612a89565b9150612b4082612b01565b602082019050919050565b5f6020820190508181035f830152612b6281612b29565b9050919050565b5f612b7382612782565b9150612b7e83612782565b9250828201905080821115612b9657612b956129fc565b5b92915050565b7f4e487b71000000000000000000000000000000000000000000000000000000005f52603160045260245ffd5b7f496e73756666696369656e7420746f6b656e2062616c616e63650000000000005f82015250565b5f612bfd601a83612a89565b9150612c0882612bc9565b602082019050919050565b5f6020820190508181035f830152612c2a81612bf1565b9050919050565b5f604082019050612c445f8301856129d4565b612c5160208301846127e0565b9392505050565b5f8115159050919050565b612c6c81612c58565b8114612c76575f80fd5b50565b5f81519050612c8781612c63565b92915050565b5f60208284031215612ca257612ca161277e565b5b5f612caf84828501612c79565b91505092915050565b7f496e76616c69642072657761726420706572696f6420616d6f756e74000000005f82015250565b5f612cec601c83612a89565b9150612cf782612cb8565b602082019050919050565b5f6020820190508181035f830152612d1981612ce0565b9050919050565b7f496e76616c69642072657761726420706572696f6420696e74657276616c00005f82015250565b5f612d54601e83612a89565b9150612d5f82612d20565b602082019050919050565b5f6020820190508181035f830152612d8181612d48565b9050919050565b7f496e76616c696420706572696f642073746172742074696d65000000000000005f82015250565b5f612dbc601983612a89565b9150612dc782612d88565b602082019050919050565b5f6020820190508181035f830152612de981612db0565b9050919050565b5f612dfa82612782565b91505f8203612e0c57612e0b6129fc565b5b600182039050919050565b5f81519050612e258161278b565b92915050565b5f60208284031215612e4057612e3f61277e565b5b5f612e4d84828501612e17565b91505092915050565b7f4e6f206163746976652072657761726420706572696f6420666f756e640000005f82015250565b5f612e8a601d83612a89565b9150612e9582612e56565b602082019050919050565b5f6020820190508181035f830152612eb781612e7e565b9050919050565b7f4465706f73697420616d6f756e742073686f756c64206e6f74206265203000005f82015250565b5f612ef2601e83612a89565b9150612efd82612ebe565b602082019050919050565b5f6020820190508181035f830152612f1f81612ee6565b9050919050565b5f604082019050612f395f8301856129d4565b612f4660208301846129d4565b9392505050565b7f496e73756666696369656e7420616c6c6f77616e6365000000000000000000005f82015250565b5f612f81601683612a89565b9150612f8c82612f4d565b602082019050919050565b5f6020820190508181035f830152612fae81612f75565b9050919050565b5f606082019050612fc85f8301866129d4565b612fd560208301856129d4565b612fe260408301846127e0565b949350505050565b7f4f776e61626c653a206e6577206f776e657220697320746865207a65726f20615f8201527f6464726573730000000000000000000000000000000000000000000000000000602082015250565b5f613044602683612a89565b915061304f82612fea565b604082019050919050565b5f6020820190508181035f83015261307181613038565b9050919050565b7f52657761726420646973747269627574696f6e2073686f756c64206265206d6f5f8201527f6e6f746f6e696320696e6372656173696e670000000000000000000000000000602082015250565b5f6130d2603283612a89565b91506130dd82613078565b604082019050919050565b5f6020820190508181035f8301526130ff816130c6565b9050919050565b7f4e6f7420656e6f75676820746f6b656e73207374616b656400000000000000005f82015250565b5f61313a601883612a89565b915061314582613106565b602082019050919050565b5f6020820190508181035f8301526131678161312e565b9050919050565b7f5374616b65206d757374206265206120706f73697469766520616d6f756e74205f8201527f67726561746572207468616e2030000000000000000000000000000000000000602082015250565b5f6131c8602e83612a89565b91506131d38261316e565b604082019050919050565b5f6020820190508181035f8301526131f5816131bc565b9050919050565b7f4e6f7420656e6f75676820746f6b656e7320746f207374616b650000000000005f82015250565b5f613230601a83612a89565b915061323b826131fc565b602082019050919050565b5f6020820190508181035f83015261325d81613224565b9050919050565b7f4e487b71000000000000000000000000000000000000000000000000000000005f52601260045260245ffd5b5f61329b82612782565b91506132a683612782565b9250826132b6576132b5613264565b5b828204905092915050565b5f6132cb82612782565b91506132d683612782565b92508282026132e481612782565b915082820484148315176132fb576132fa6129fc565b5b509291505056fea26469706673582212201e7d991fc02d2fe23e228aadcb00de856874afaed21fecfe2811ed946c58640b64736f6c63430008180033",
  "immutableReferences": {},
  "source": "// SPDX-License-Identifier: MIT\npragma solidity ^0.8.0;\npragma abicoder v2;\n\nimport \"./StakingPool.sol\";\nimport \"../node_modules/@openzeppelin/contracts/utils/math/Math.sol\";\n\n/**\n * Pool contract to distribute reward tokens among LP token stakers proportionally to the amount and duration of the their stakes.\n * The owner can setup multiple reward periods each one with a pre-allocated amount of reward tokens to be distributed.\n * Users are free to add and remove tokens to their stake at any time.\n * Users can also claim their pending reward at any time.\n\n * The pool implements an efficient O(1) algo to distribute the rewards based on this paper:\n * https://uploads-ssl.webflow.com/5ad71ffeb79acc67c8bcdaba/5ad8d1193a40977462982470_scalable-reward-distribution-paper.pdf\n */\ncontract StakingRewardPool is StakingPool  {\n\n    using SafeMath for uint256;\n\n    event RewardPaid(address indexed user, uint256 reward);\n\n    struct RewardPeriod {\n        uint id;\n        uint reward;\n        uint from;\n        uint to;\n        uint lastUpdated; // when the totalStakedWeight was last updated (after last stake was ended)\n        uint totalStaked; // T: sum of all active stake deposits\n        uint rewardPerTokenStaked; // S: SUM(reward/T) - sum of all rewards distributed divided all active stakes\n        uint totalRewardsPaid; \n    }\n\n    struct UserInfo {\n        uint userRewardPerTokenStaked;\n        uint pendingRewards;\n        uint rewardsPaid;\n    }\n\n    struct RewardsStats {\n        // user stats\n        uint claimableRewards;\n        uint rewardsPaid;\n        // general stats\n        uint rewardRate;\n        uint totalRewardsPaid;\n    }\n\n\n    IERC20 internal rewardToken;\n    RewardPeriod[] public rewardPeriods;\n    uint rewardPeriodsCount = 0;\n\n\n    mapping(address => UserInfo) userInfos;\n\n    // mapping(address => uint) userRewardPerTokenStaked;\n    // mapping (address => uint) pendingRewards;\n\n    uint constant rewardPrecision = 1e9;\n\n\n    constructor(address _rewardTokenAddress, address _lpTokenAddress) StakingPool(_rewardTokenAddress, _lpTokenAddress) {\n        rewardToken = IERC20(_rewardTokenAddress);\n    }\n\n\n    function newRewardPeriod(uint reward, uint from, uint to) public onlyOwner {\n        require(reward > 0, \"Invalid reward period amount\");\n        require(to > from && to > block.timestamp, \"Invalid reward period interval\");\n        require(rewardPeriods.length == 0 || from > rewardPeriods[rewardPeriods.length-1].to, \"Invalid period start time\");\n\n        rewardPeriods.push(RewardPeriod(rewardPeriods.length+1, reward, from, to, block.timestamp, 0, 0, 0));\n        rewardPeriodsCount = rewardPeriods.length;\n        depositReward(reward);\n    }\n\n\n    function getRewardPeriodsCount() public view returns(uint) {\n        return rewardPeriodsCount;\n    }\n\n\n    function deleteRewardPeriod(uint index) public onlyOwner {\n        require(rewardPeriods.length > index, \"Invalid reward phase index\");\n        for (uint i=index; i<rewardPeriods.length-1; i++) {\n            rewardPeriods[i] = rewardPeriods[i+1];\n        }\n        rewardPeriods.pop();\n        rewardPeriodsCount = rewardPeriods.length;\n    }\n\n\n    function rewardBalance() public view returns (uint) {\n        return rewardToken.balanceOf(address(this));\n    }\n\n\n    // Deposit ETB token rewards into this contract\n    function depositReward(uint amount) internal onlyOwner {\n        rewardToken.transferFrom(msg.sender, address(this), amount);\n    }\n\n\n    function startStake(uint amount) public override {\n        uint periodId = getCurrentRewardPeriodId();\n        require(periodId > 0, \"No active reward period found\");\n        update();\n\n        super.startStake(amount);\n\n        // update total tokens staked\n        RewardPeriod storage period = rewardPeriods[periodId-1];\n        period.totalStaked = period.totalStaked.add(amount);\n    }\n\n    function endStake(uint amount) public override {\n        update();\n        super.endStake(amount);\n\n        // update total tokens staked\n        uint periodId = getCurrentRewardPeriodId();\n        RewardPeriod storage period = rewardPeriods[periodId-1];\n        period.totalStaked = period.totalStaked.sub(amount);\n        \n        claim();\n    }\n\n    function claimableReward() view public returns (uint) {\n        uint periodId = getCurrentRewardPeriodId();\n        if (periodId == 0) return 0;\n\n        RewardPeriod memory period = rewardPeriods[periodId-1];\n        uint newRewardDistribution = calculateRewardDistribution(period);\n        uint reward = calculateReward(newRewardDistribution);\n\n        UserInfo memory userInfo = userInfos[msg.sender];\n        uint pending = userInfo.pendingRewards;\n\n        return pending.add(reward);\n    }\n \n    function claimReward() public {\n        update();\n        claim();\n    }\n\n    function claim() internal {\n        UserInfo storage userInfo = userInfos[msg.sender];\n        uint rewards = userInfo.pendingRewards;\n        if (rewards != 0) {\n            userInfo.pendingRewards = 0;\n\n            uint periodId = getCurrentRewardPeriodId();\n            RewardPeriod storage period = rewardPeriods[periodId-1];\n            period.totalRewardsPaid = period.totalRewardsPaid.add(rewards);\n\n            payReward(msg.sender, rewards);\n        }\n    }\n\n    function getCurrentRewardPeriodId() public view returns (uint) {\n        if (rewardPeriodsCount == 0) return 0;\n        for (uint i=rewardPeriods.length; i>0; i--) {\n            RewardPeriod memory period = rewardPeriods[i-1];\n            if (period.from <= block.timestamp && period.to >= block.timestamp) {\n                return period.id;\n            }\n        }\n        return 0;\n    }\n\n\n    function getRewardsStats() public view returns (RewardsStats memory) {\n        UserInfo memory userInfo = userInfos[msg.sender];\n\n        RewardsStats memory stats = RewardsStats(0, 0, 0, 0);\n        // user stats\n        stats.claimableRewards = claimableReward();\n        stats.rewardsPaid = userInfo.rewardsPaid;\n\n        // reward period stats\n        uint periodId = getCurrentRewardPeriodId();\n        if (periodId > 0) {\n            RewardPeriod memory period = rewardPeriods[periodId-1];\n            stats.rewardRate = rewardRate(period);\n            stats.totalRewardsPaid = period.totalRewardsPaid;\n        }\n\n        return stats;\n    }\n\n\n    function rewardRate(RewardPeriod memory period) internal pure returns (uint) {\n        uint duration = period.to.sub(period.from);\n        return period.reward.div(duration);\n    }\n\n    function payReward(address account, uint reward) internal {\n        UserInfo storage userInfo = userInfos[msg.sender];\n        userInfo.rewardsPaid = userInfo.rewardsPaid.add(reward);\n        rewardToken.transfer(account, reward);\n\n        emit RewardPaid(account, reward);\n    }\n\n\n    /// Reward calcualtion logic\n\n    function update() internal {\n        uint periodId = getCurrentRewardPeriodId();\n        require(periodId > 0, \"No active reward period found\");\n\n        RewardPeriod storage period = rewardPeriods[periodId-1];\n        uint rewardDistribuedPerToken = calculateRewardDistribution(period);\n\n        // update pending rewards reward since rewardPerTokenStaked was updated\n        uint reward = calculateReward(rewardDistribuedPerToken);\n        UserInfo storage userInfo = userInfos[msg.sender];\n        userInfo.pendingRewards = userInfo.pendingRewards.add(reward);\n        userInfo.userRewardPerTokenStaked = rewardDistribuedPerToken;\n\n        require(rewardDistribuedPerToken >= period.rewardPerTokenStaked, \"Reward distribution should be monotonic increasing\");\n\n        period.rewardPerTokenStaked = rewardDistribuedPerToken;\n        period.lastUpdated = block.timestamp;\n    }\n\n\n    function calculateRewardDistribution(RewardPeriod memory period) view internal returns (uint) {\n\n        // calculate total reward to be distributed since period.lastUpdated\n        uint rate = rewardRate(period);\n        uint deltaTime = block.timestamp.sub(period.lastUpdated);\n        uint reward = deltaTime.mul(rate);\n\n        uint newRewardPerTokenStaked = period.rewardPerTokenStaked;  // 0\n        if (period.totalStaked != 0) {\n            // S = S + r / T\n            newRewardPerTokenStaked = period.rewardPerTokenStaked.add( \n                reward.mul(rewardPrecision).div(period.totalStaked)\n            );\n        }\n\n        return newRewardPerTokenStaked;\n    }\n\n\n    function calculateReward(uint rewardDistribution) internal view returns (uint) {\n        if (rewardDistribution == 0) return 0;\n\n        uint staked = stakes[msg.sender];\n        UserInfo memory userInfo = userInfos[msg.sender];\n        uint reward = staked.mul(\n            rewardDistribution.sub(userInfo.userRewardPerTokenStaked)\n        ).div(rewardPrecision);\n\n        return reward;\n    }\n\n\n    // HELPERS - Used in tests\n\n    function reset() public override onlyOwner {\n        for (uint i=0; i<rewardPeriods.length; i++) {\n            delete rewardPeriods[i];\n        }\n        rewardPeriodsCount = 0;\n        for (uint i=0; i<usersArray.length; i++) {\n            delete userInfos[usersArray[i]];\n        }\n        // return leftover rewards to owner\n        uint leftover = rewardBalance();\n        rewardToken.transfer(msg.sender, leftover);\n        super.reset();\n    }\n\n}\n",
  "sourcePath": "C:\\Users\\PC\\Desktop\\repos\\perfect10\\staking\\contracts\\StakingRewardPool.sol",
  "compiler": {
    "name": "solc",
    "version": "0.8.24+commit.e11b9ed9.Emscripten.clang"
  },
  "schemaVersion": "3.4.16",
  "updatedAt": "2024-02-19T00:39:29.675Z",
  "networkType": "ethereum",
  "devdoc": {
    "kind": "dev",
    "methods": {
      "owner()": {
        "details": "Returns the address of the current owner."
      },
      "renounceOwnership()": {
        "details": "Leaves the contract without owner. It will not be possible to call `onlyOwner` functions anymore. Can only be called by the current owner. NOTE: Renouncing ownership will leave the contract without an owner, thereby removing any functionality that is only available to the owner."
      },
      "transferOwnership(address)": {
        "details": "Transfers ownership of the contract to a new account (`newOwner`). Can only be called by the current owner."
      }
    },
    "version": 1
  },
  "userdoc": {
    "kind": "user",
    "methods": {},
    "notice": "Pool contract to distribute reward tokens among LP token stakers proportionally to the amount and duration of the their stakes. The owner can setup multiple reward periods each one with a pre-allocated amount of reward tokens to be distributed. Users are free to add and remove tokens to their stake at any time. Users can also claim their pending reward at any time. The pool implements an efficient O(1) algo to distribute the rewards based on this paper: https://uploads-ssl.webflow.com/5ad71ffeb79acc67c8bcdaba/5ad8d1193a40977462982470_scalable-reward-distribution-paper.pdf",
    "version": 1
  }
}