{
  "contractName": "Wallet",
  "abi": [
    {
      "inputs": [
        {
          "internalType": "address",
          "name": "_cakeLPTokenAddress",
          "type": "address"
        }
      ],
      "stateMutability": "nonpayable",
      "type": "constructor"
    },
    {
      "anonymous": false,
      "inputs": [
        {
          "indexed": true,
          "internalType": "address",
          "name": "user",
          "type": "address"
        },
        {
          "indexed": false,
          "internalType": "uint256",
          "name": "amount",
          "type": "uint256"
        }
      ],
      "name": "Deposited",
      "type": "event"
    },
    {
      "anonymous": false,
      "inputs": [
        {
          "indexed": true,
          "internalType": "address",
          "name": "previousOwner",
          "type": "address"
        },
        {
          "indexed": true,
          "internalType": "address",
          "name": "newOwner",
          "type": "address"
        }
      ],
      "name": "OwnershipTransferred",
      "type": "event"
    },
    {
      "anonymous": false,
      "inputs": [
        {
          "indexed": true,
          "internalType": "address",
          "name": "user",
          "type": "address"
        },
        {
          "indexed": false,
          "internalType": "uint256",
          "name": "amount",
          "type": "uint256"
        }
      ],
      "name": "Withdrawn",
      "type": "event"
    },
    {
      "inputs": [
        {
          "internalType": "address",
          "name": "",
          "type": "address"
        }
      ],
      "name": "balances",
      "outputs": [
        {
          "internalType": "uint256",
          "name": "",
          "type": "uint256"
        }
      ],
      "stateMutability": "view",
      "type": "function"
    },
    {
      "inputs": [],
      "name": "owner",
      "outputs": [
        {
          "internalType": "address",
          "name": "",
          "type": "address"
        }
      ],
      "stateMutability": "view",
      "type": "function"
    },
    {
      "inputs": [],
      "name": "renounceOwnership",
      "outputs": [],
      "stateMutability": "nonpayable",
      "type": "function"
    },
    {
      "inputs": [
        {
          "internalType": "address",
          "name": "newOwner",
          "type": "address"
        }
      ],
      "name": "transferOwnership",
      "outputs": [],
      "stateMutability": "nonpayable",
      "type": "function"
    },
    {
      "inputs": [],
      "name": "getBalance",
      "outputs": [
        {
          "internalType": "uint256",
          "name": "",
          "type": "uint256"
        }
      ],
      "stateMutability": "view",
      "type": "function"
    },
    {
      "inputs": [
        {
          "internalType": "uint256",
          "name": "amount",
          "type": "uint256"
        }
      ],
      "name": "deposit",
      "outputs": [],
      "stateMutability": "nonpayable",
      "type": "function"
    },
    {
      "inputs": [
        {
          "internalType": "uint256",
          "name": "amount",
          "type": "uint256"
        }
      ],
      "name": "withdraw",
      "outputs": [],
      "stateMutability": "nonpayable",
      "type": "function"
    }
  ],
  "bytecode": "0x608060405234801562000010575f80fd5b5060405162001143380380620011438339818101604052810190620000369190620001ca565b620000566200004a6200009d60201b60201c565b620000a460201b60201c565b8060015f6101000a81548173ffffffffffffffffffffffffffffffffffffffff021916908373ffffffffffffffffffffffffffffffffffffffff16021790555050620001fa565b5f33905090565b5f805f9054906101000a900473ffffffffffffffffffffffffffffffffffffffff169050815f806101000a81548173ffffffffffffffffffffffffffffffffffffffff021916908373ffffffffffffffffffffffffffffffffffffffff1602179055508173ffffffffffffffffffffffffffffffffffffffff168173ffffffffffffffffffffffffffffffffffffffff167f8be0079c531659141344cd1fd0a4f28419497f9722a3daafe3b4186f6b6457e060405160405180910390a35050565b5f80fd5b5f73ffffffffffffffffffffffffffffffffffffffff82169050919050565b5f620001948262000169565b9050919050565b620001a68162000188565b8114620001b1575f80fd5b50565b5f81519050620001c4816200019b565b92915050565b5f60208284031215620001e257620001e162000165565b5b5f620001f184828501620001b4565b91505092915050565b610f3b80620002085f395ff3fe608060405234801561000f575f80fd5b506004361061007b575f3560e01c8063715018a611610059578063715018a6146100e95780638da5cb5b146100f3578063b6b55f2514610111578063f2fde38b1461012d5761007b565b806312065fe01461007f57806327e235e31461009d5780632e1a7d4d146100cd575b5f80fd5b610087610149565b60405161009491906109f3565b60405180910390f35b6100b760048036038101906100b29190610a6a565b61018d565b6040516100c491906109f3565b60405180910390f35b6100e760048036038101906100e29190610abf565b6101a2565b005b6100f16103a1565b005b6100fb610428565b6040516101089190610af9565b60405180910390f35b61012b60048036038101906101269190610abf565b61044f565b005b61014760048036038101906101429190610a6a565b6107f3565b005b5f60025f3373ffffffffffffffffffffffffffffffffffffffff1673ffffffffffffffffffffffffffffffffffffffff1681526020019081526020015f2054905090565b6002602052805f5260405f205f915090505481565b8060025f3373ffffffffffffffffffffffffffffffffffffffff1673ffffffffffffffffffffffffffffffffffffffff1681526020019081526020015f20541015610222576040517f08c379a000000000000000000000000000000000000000000000000000000000815260040161021990610b6c565b60405180910390fd5b6102728160025f3373ffffffffffffffffffffffffffffffffffffffff1673ffffffffffffffffffffffffffffffffffffffff1681526020019081526020015f20546108e990919063ffffffff16565b60025f3373ffffffffffffffffffffffffffffffffffffffff1673ffffffffffffffffffffffffffffffffffffffff1681526020019081526020015f208190555060015f9054906101000a900473ffffffffffffffffffffffffffffffffffffffff1673ffffffffffffffffffffffffffffffffffffffff1663a9059cbb33836040518363ffffffff1660e01b815260040161030f929190610b8a565b6020604051808303815f875af115801561032b573d5f803e3d5ffd5b505050506040513d601f19601f8201168201806040525081019061034f9190610be6565b503373ffffffffffffffffffffffffffffffffffffffff167f7084f5476618d8e60b11ef0d7d3f06914655adb8793e28ff7f018d4c76d505d58260405161039691906109f3565b60405180910390a250565b6103a96108fe565b73ffffffffffffffffffffffffffffffffffffffff166103c7610428565b73ffffffffffffffffffffffffffffffffffffffff161461041d576040517f08c379a000000000000000000000000000000000000000000000000000000000815260040161041490610c5b565b60405180910390fd5b6104265f610905565b565b5f805f9054906101000a900473ffffffffffffffffffffffffffffffffffffffff16905090565b5f8111610491576040517f08c379a000000000000000000000000000000000000000000000000000000000815260040161048890610cc3565b60405180910390fd5b8060015f9054906101000a900473ffffffffffffffffffffffffffffffffffffffff1673ffffffffffffffffffffffffffffffffffffffff1663dd62ed3e33306040518363ffffffff1660e01b81526004016104ee929190610ce1565b602060405180830381865afa158015610509573d5f803e3d5ffd5b505050506040513d601f19601f8201168201806040525081019061052d9190610d1c565b101561056e576040517f08c379a000000000000000000000000000000000000000000000000000000000815260040161056590610d91565b60405180910390fd5b6105be8160025f3373ffffffffffffffffffffffffffffffffffffffff1673ffffffffffffffffffffffffffffffffffffffff1681526020019081526020015f20546109c690919063ffffffff16565b60025f3373ffffffffffffffffffffffffffffffffffffffff1673ffffffffffffffffffffffffffffffffffffffff1681526020019081526020015f208190555060045f3373ffffffffffffffffffffffffffffffffffffffff1673ffffffffffffffffffffffffffffffffffffffff1681526020019081526020015f205f9054906101000a900460ff1661070357600160045f3373ffffffffffffffffffffffffffffffffffffffff1673ffffffffffffffffffffffffffffffffffffffff1681526020019081526020015f205f6101000a81548160ff021916908315150217905550600333908060018154018082558091505060019003905f5260205f20015f9091909190916101000a81548173ffffffffffffffffffffffffffffffffffffffff021916908373ffffffffffffffffffffffffffffffffffffffff1602179055505b60015f9054906101000a900473ffffffffffffffffffffffffffffffffffffffff1673ffffffffffffffffffffffffffffffffffffffff166323b872dd3330846040518463ffffffff1660e01b815260040161076193929190610daf565b6020604051808303815f875af115801561077d573d5f803e3d5ffd5b505050506040513d601f19601f820116820180604052508101906107a19190610be6565b503373ffffffffffffffffffffffffffffffffffffffff167f2da466a7b24304f47e87fa2e1e5a81b9831ce54fec19055ce277ca2f39ba42c4826040516107e891906109f3565b60405180910390a250565b6107fb6108fe565b73ffffffffffffffffffffffffffffffffffffffff16610819610428565b73ffffffffffffffffffffffffffffffffffffffff161461086f576040517f08c379a000000000000000000000000000000000000000000000000000000000815260040161086690610c5b565b60405180910390fd5b5f73ffffffffffffffffffffffffffffffffffffffff168173ffffffffffffffffffffffffffffffffffffffff16036108dd576040517f08c379a00000000000000000000000000000000000000000000000000000000081526004016108d490610e54565b60405180910390fd5b6108e681610905565b50565b5f81836108f69190610e9f565b905092915050565b5f33905090565b5f805f9054906101000a900473ffffffffffffffffffffffffffffffffffffffff169050815f806101000a81548173ffffffffffffffffffffffffffffffffffffffff021916908373ffffffffffffffffffffffffffffffffffffffff1602179055508173ffffffffffffffffffffffffffffffffffffffff168173ffffffffffffffffffffffffffffffffffffffff167f8be0079c531659141344cd1fd0a4f28419497f9722a3daafe3b4186f6b6457e060405160405180910390a35050565b5f81836109d39190610ed2565b905092915050565b5f819050919050565b6109ed816109db565b82525050565b5f602082019050610a065f8301846109e4565b92915050565b5f80fd5b5f73ffffffffffffffffffffffffffffffffffffffff82169050919050565b5f610a3982610a10565b9050919050565b610a4981610a2f565b8114610a53575f80fd5b50565b5f81359050610a6481610a40565b92915050565b5f60208284031215610a7f57610a7e610a0c565b5b5f610a8c84828501610a56565b91505092915050565b610a9e816109db565b8114610aa8575f80fd5b50565b5f81359050610ab981610a95565b92915050565b5f60208284031215610ad457610ad3610a0c565b5b5f610ae184828501610aab565b91505092915050565b610af381610a2f565b82525050565b5f602082019050610b0c5f830184610aea565b92915050565b5f82825260208201905092915050565b7f496e73756666696369656e7420746f6b656e2062616c616e63650000000000005f82015250565b5f610b56601a83610b12565b9150610b6182610b22565b602082019050919050565b5f6020820190508181035f830152610b8381610b4a565b9050919050565b5f604082019050610b9d5f830185610aea565b610baa60208301846109e4565b9392505050565b5f8115159050919050565b610bc581610bb1565b8114610bcf575f80fd5b50565b5f81519050610be081610bbc565b92915050565b5f60208284031215610bfb57610bfa610a0c565b5b5f610c0884828501610bd2565b91505092915050565b7f4f776e61626c653a2063616c6c6572206973206e6f7420746865206f776e65725f82015250565b5f610c45602083610b12565b9150610c5082610c11565b602082019050919050565b5f6020820190508181035f830152610c7281610c39565b9050919050565b7f4465706f73697420616d6f756e742073686f756c64206e6f74206265203000005f82015250565b5f610cad601e83610b12565b9150610cb882610c79565b602082019050919050565b5f6020820190508181035f830152610cda81610ca1565b9050919050565b5f604082019050610cf45f830185610aea565b610d016020830184610aea565b9392505050565b5f81519050610d1681610a95565b92915050565b5f60208284031215610d3157610d30610a0c565b5b5f610d3e84828501610d08565b91505092915050565b7f496e73756666696369656e7420616c6c6f77616e6365000000000000000000005f82015250565b5f610d7b601683610b12565b9150610d8682610d47565b602082019050919050565b5f6020820190508181035f830152610da881610d6f565b9050919050565b5f606082019050610dc25f830186610aea565b610dcf6020830185610aea565b610ddc60408301846109e4565b949350505050565b7f4f776e61626c653a206e6577206f776e657220697320746865207a65726f20615f8201527f6464726573730000000000000000000000000000000000000000000000000000602082015250565b5f610e3e602683610b12565b9150610e4982610de4565b604082019050919050565b5f6020820190508181035f830152610e6b81610e32565b9050919050565b7f4e487b71000000000000000000000000000000000000000000000000000000005f52601160045260245ffd5b5f610ea9826109db565b9150610eb4836109db565b9250828203905081811115610ecc57610ecb610e72565b5b92915050565b5f610edc826109db565b9150610ee7836109db565b9250828201905080821115610eff57610efe610e72565b5b9291505056fea2646970667358221220b083468210856debad1442dae481b1b605cde591a1a8abaf925f9f42c7c9b84864736f6c63430008180033",
  "immutableReferences": {},
  "source": "// SPDX-License-Identifier: MIT\npragma solidity ^0.8.0;\n\nimport \"../node_modules/@openzeppelin/contracts/token/ERC20/IERC20.sol\";\nimport \"../node_modules/@openzeppelin/contracts/utils/math/SafeMath.sol\";\nimport \"../node_modules/@openzeppelin/contracts/access/Ownable.sol\";\n\ncontract Wallet is Ownable {\n\n    using SafeMath for uint256;\n\n    event Deposited(address indexed user, uint256 amount);\n    event Withdrawn(address indexed user, uint256 amount);\n\n\n    IERC20 internal cakeLP;\n\n    // CakeLP token balances\n    mapping (address => uint256) public balances;\n\n    // users that deposited CakeLP tokens into their balances \n    address[] internal usersArray;\n    mapping (address => bool) internal users;\n\n\n    constructor(address _cakeLPTokenAddress) {\n        cakeLP = IERC20(_cakeLPTokenAddress);\n    }\n\n\n    function getBalance() external view returns (uint256) {\n        return balances[msg.sender];\n    }\n\n\n    function deposit(uint256 amount) public {\n        require(amount > 0, \"Deposit amount should not be 0\");\n        require(cakeLP.allowance(msg.sender, address(this)) >= amount, \"Insufficient allowance\");\n\n        balances[msg.sender] = balances[msg.sender].add(amount);\n\n        // remember addresses that deposited tokens\n        if (!users[msg.sender]) {\n            users[msg.sender] = true;\n            usersArray.push(msg.sender);\n        }\n        \n        cakeLP.transferFrom(msg.sender, address(this), amount);\n\n        emit Deposited(msg.sender, amount);\n    }\n\n    function withdraw(uint256 amount) public {\n        require(balances[msg.sender] >= amount, \"Insufficient token balance\");\n\n        balances[msg.sender] = balances[msg.sender].sub(amount);\n        cakeLP.transfer(msg.sender, amount);\n\n        emit Withdrawn(msg.sender, amount);\n    }\n}",
  "sourcePath": "C:\\Users\\PC\\Desktop\\repos\\perfect10\\staking\\contracts\\Wallet.sol",
  "compiler": {
    "name": "solc",
    "version": "0.8.24+commit.e11b9ed9.Emscripten.clang"
  },
  "schemaVersion": "3.4.16",
  "updatedAt": "2024-02-19T00:39:08.310Z",
  "devdoc": {
    "kind": "dev",
    "methods": {
      "owner()": {
        "details": "Returns the address of the current owner."
      },
      "renounceOwnership()": {
        "details": "Leaves the contract without owner. It will not be possible to call `onlyOwner` functions anymore. Can only be called by the current owner. NOTE: Renouncing ownership will leave the contract without an owner, thereby removing any functionality that is only available to the owner."
      },
      "transferOwnership(address)": {
        "details": "Transfers ownership of the contract to a new account (`newOwner`). Can only be called by the current owner."
      }
    },
    "version": 1
  },
  "userdoc": {
    "kind": "user",
    "methods": {},
    "version": 1
  }
}